:10000000A3C200000C9406160C94DB150C94B015DA
:100010000C9485150C945A150C942F150C940415FA
:100020000C94D914C2C20000C0C20000BEC20000BD
:10003000BCC20000BAC20000B8C20000B6C20000D4
:10004000B4C20000B2C20000B0C20000AEC20000E4
:10005000ACC20000AAC20000A8C200000C948F1419
:10006000A4C200000C948F130C9466139EC200006F
:100070009CC200009AC2000098C2000096C2000014
:1000800094C2000092C2000090C200008EC2000024
:100090008CC200008AC2000088C2000086C2000034
:1000A00084C2000082C2000080C200007EC2000044
:1000B0007CC200007AC2000078C2000076C2000054
:1000C00074C2000072C2000070C200006EC2000064
:1000D0006CC200006AC2000068C2000066C2000074
:1000E00064C20000DC12DF12CE12D212D812161334
:1000F000E312E712ED12F112F512FB12FF120313D5
:10010000161309130D1311135113531349134B13E2
:100110004D134F135513571383164D16551661166D
:100120006E168F169C1600010102010202030102E5
:100130000203020303040102020302030304020395
:10014000030403040405010202030203030402037F
:100150000304030404050203030403040405030465
:100160000405040505060102020302030304020359
:100170000304030404050203030403040405030445
:10018000040504050506020303040304040503042F
:100190000405040505060304040504050506040515
:1001A0000506050606070102020302030304020313
:1001B0000304030404050203030403040405030405
:1001C00004050405050602030304030404050304EF
:1001D00004050405050603040405040505060405D5
:1001E00005060506060702030304030404050304C9
:1001F00004050405050603040405040505060405B5
:10020000050605060607030404050405050604059E
:100210000506050606070405050605060607050684
:1002200006070607070800002110422063308440BB
:10023000A550C660E770088129914AA16BB18CC1B5
:10024000ADD1CEE1EFF13112100273325222B5522C
:100250009442F772D662399318837BB35AA3BDD305
:100260009CC3FFF3DEE36224433420040114E664FC
:10027000C774A44485546AA54BB528850995EEE555
:10028000CFF5ACC58DD55336722611163006D7760C
:10029000F6669556B4465BB77AA719973887DFF7A5
:1002A000FEE79DD7BCC7C448E5588668A7784008D4
:1002B000611802282338CCC9EDD98EE9AFF94889F5
:1002C00069990AA92BB9F55AD44AB77A966A711A6C
:1002D000500A333A122AFDDBDCCBBFFB9EEB799B45
:1002E000588B3BBB1AABA66C877CE44CC55C222CBC
:1002F000033C600C411CAEED8FFDECCDCDDD2AAD95
:100300000BBD688D499D977EB66ED55EF44E133E4B
:10031000322E511E700E9FFFBEEFDDDFFCCF1BBFE4
:100320003AAF599F788F8891A981CAB1EBA10CD1BE
:100330002DC14EF16FE18010A100C230E3200450C6
:10034000254046706760B9839893FBA3DAB33DC339
:100350001CD37FE35EF3B1029012F322D232354216
:10036000145277625672EAB5CBA5A89589856EF5C9
:100370004FE52CD50DC5E234C324A0148104667466
:10038000476424540544DBA7FAB79987B8975FE719
:100390007EF71DC73CD7D326F2369106B0165766B6
:1003A0007676154634564CD96DC90EF92FE9C899A1
:1003B000E9898AB9ABA94458654806782768C01806
:1003C000E1088238A3287DCB5CDB3FEB1EFBF98B79
:1003D000D89BBBAB9ABB754A545A376A167AF10A56
:1003E000D01AB32A923A2EFD0FED6CDD4DCDAABD89
:1003F0008BADE89DC98D267C076C645C454CA23CA6
:10040000832CE01CC10C1FEF3EFF5DCF7CDF9BAF58
:10041000BABFD98FF89F176E367E554E745E932EF5
:10042000B23ED10EF01E00002100240027002A0059
:100430002D003000330001010000040107010A0112
:1004400000002200250028002B002E00310034007F
:1004500002010000050108010B010000200023003B
:10046000260029002C002F003200000100000301AB
:100470000601090105050505070508080808020227
:1004800002020A0A0808040404040101010101012E
:1004900001010303030303030303040707070C0C11
:1004A0000C0C0C0C0C0C02020202060606060606D8
:1004B00006060B0B0B0B0B0B0B0B0102102020087D
:1004C00008102040102040800201020108040201AF
:1004D000010204081020408080402010080402011E
:1004E0008004020180402010080402010804020177
:1004F00001020408102040800102040810204080FE
:1005000000000A0B02090C0D0E080703040100008D
:1005100000000000000000000000000000000000DB
:100520000000000000000000000000001211100098
:1005300000000000000000000000000000000000BB
:10054000000000000000343911241FBECFEFD1E2BB
:10055000DEBFCDBF00E00CBF12E0A0E0B2E0E6EAF3
:10056000F7E700E00BBF02C007900D92AC33B10774
:10057000D9F729E0ACE3B2E001C01D92A832B2077E
:10058000E1F712E0C4EAD2E000E006C021970109D9
:10059000802FFE010E94B13BC33AD10780E00807DB
:1005A000A9F70E9489290C94D13B2ACD7091A4020D
:1005B000E091A4026091A402E1FB442740F950E0DD
:1005C000872F817090E08427952762FB222720F9EE
:1005D00030E08217930701F140914B0250914C0299
:1005E000E091A6028091A502F0E09F01220F331F47
:1005F000E20FF31FE80FF11DE15BFD4F208181E069
:1006000090E0A0E0B0E004C0880F991FAA1FBB1FB4
:100610004A95D2F7822B2AC020914B0230914C028E
:10062000E091A6028091A502F0E0AF01440F551FB2
:10063000E40FF51FE80FF11DE15BFD4F8081482FAE
:1006400050E060E070E081E090E0A0E0B0E004C045
:10065000880F991FAA1FBB1F2A95D2F780959095E6
:10066000A095B09584239523A623B72380838091FA
:100670004B0290914C02019690934C0280934B0256
:100680002091A4028091A40290E09595879595957C
:100690008795822780FF20C040914B0250914C02E9
:1006A000E091A6028091A502F0E09F01220F331F86
:1006B000E20FF31FE80FF11DE15BFD4F208181E0A8
:1006C00090E0A0E0B0E004C0880F991FAA1FBB1FF4
:1006D0004A95D2F7822B2AC020914B0230914C02CE
:1006E000E091A6028091A502F0E0AF01440F551FF2
:1006F000E40FF51FE80FF11DE15BFD4F8081482FEE
:1007000050E060E070E081E090E0A0E0B0E004C084
:10071000880F991FAA1FBB1F2A95D2F78095909525
:10072000A095B09584239523A623B7238083809139
:100730004B0290914C02019690934C0280934B0295
:10074000089580919607882329F08091960781115A
:1007500015C027C080913D028130B9F782E00E9428
:10076000C413892BD9F382E00E94C4130197D9F3F3
:1007700082E00E94C413892BD9F3E7CF83E00E9463
:10078000C413892BD9F383E00E94C4130197D9F3D2
:1007900083E00E94C413892BD9F38091C60681306F
:1007A00091F0809100029091010261E00E94EC13AF
:1007B000809100029091010260E00E94EC1360E0E1
:1007C0008AE00C94EC1383E00E94C4130197D9F3E0
:1007D00083E00E94C413892BD9F3E3CF0E94A619AA
:1007E00080913C02813049F0809195070E9431163A
:1007F0008091960781110AC005C080916F078130F2
:1008000099F73AC080913D02813029F08091960796
:10081000811111C01FC082E00E94C4130197D9F357
:1008200082E00E94C413892BD9F382E00E94C41392
:100830000197D9F3EBCF83E00E94C4130197D9F35A
:1008400083E00E94C413892BD9F383E00E94C41370
:100850000197D9F3809100029091010261E00E941A
:10086000EC13809100029091010260E00E94EC1371
:1008700060E08AE00C94EC1380919607811105C02A
:1008800080913D02882309F4AFCF8091950742E023
:1008900050E062E976E20E9435168091BC07813013
:1008A000A1F38091950742E050E062E976E20E9470
:1008B00035168091BC078823A1F38091950742E00B
:1008C00050E062E976E20E9435168091BC078130E3
:1008D000A1F38ACF809176078F5F8093760780910E
:1008E0007607883000F110927607E0910802F091C7
:1008F0000902EF5DFC4F808180939F068091080282
:1009000090910902019790930902809308028091C7
:10091000080290910902892B31F48CE291E09093C6
:1009200009028093080286E190E0FC01E156F94F4C
:10093000208130E03595279520830197DC01A15671
:10094000B94F2C9120FF03C02081206802C0208174
:100950002F7720838F3F2FEF920739F708958091EB
:10096000A40287FF04C08091A40282FD08C0809188
:10097000A40287FD14C08091A40282FD10C0809162
:10098000A4028E7F8093A4028091A30290E09595AB
:1009900087958093A3028091A3028F770FC08091E7
:1009A000A40281608093A4028091A30290E09595B7
:1009B00087958093A3028091A30280688093A3020D
:1009C0008091A402880F8093A4020895CF93DF93AF
:1009D0001092A6021092A5021092A40210924C024C
:1009E00010924B0281E090E09093B8068093B70696
:1009F0008091B7069091B8068A970CF045C0C0E088
:100A0000D0E08091A402880F8093A402E091B70601
:100A1000F091B806EC58F94F808190E00C2E02C09E
:100A2000959587950A94E2F780FF04C08091A4020F
:100A3000816003C08091A4028E7F8093A402B6DD02
:100A400080914B0290914C020897A4F010924C02B6
:100A500010924B028091A5028F5F8093A502809136
:100A6000A502833038F01092A5028091A6028F5F14
:100A70008093A6022196C830D10519F68091B70659
:100A80009091B8060196B0CF8091A402880F809310
:100A9000A4028091A4028E7F8093A40287DD8091BE
:100AA000A402880F8093A4028091A4028E7F809379
:100AB000A402DF91CF917ACD4F925F926F927F9295
:100AC0008F929F92AF92BF92CF92DF92EF92FF925E
:100AD0000F931F931092A6021092A5028FEF80939E
:100AE000A40210924C0210924B028AEE80932203D1
:100AF00086EA809323031092240384E090E090938D
:100B0000BB078093BA0783E090E0909375078093CA
:100B1000740720E030E061E070E0C12CD12C760158
:100B2000C39410924C0210924B028B01022E02C011
:100B3000000F111F0A94E2F780914B0290914C0232
:100B40004C970CF073C080914B0290914C02FC01C9
:100B5000EE0FFF1F8E0F9F1FFC01E15BFD4F808199
:100B600090E080239123892BC1F08091BA07909166
:100B7000BB07E0917407F0917507EF5DFC4FB08003
:100B80002601370104C0440C551C661C771C8A954D
:100B9000D2F7D301C2018B2922C0A091BA07B0912C
:100BA000BB07E0917407F0917507EF5DFC4F808102
:100BB000882E912CA12CB12C2601370104C0440CA5
:100BC000551C661C771CAA95D2F7D301C2018095EB
:100BD0009095A095B09588219921AA21BB21808369
:100BE0008091BA079091BB0701969093BB078093C1
:100BF000BA078091BA079091BB0708976CF01092E2
:100C0000BB071092BA0780917407909175070196FF
:100C1000909375078093740780914B0290914C02DA
:100C2000019690934C0280934B0286CF2F5F3F4FEB
:100C30002830310509F075CF80E090E061E070E088
:100C4000C12CD12C7601C39410924C0210924B020D
:100C5000DB01082E02C0AA0FBB1F0A94E2F7209105
:100C60004B0230914C022C3131050CF077C02091B1
:100C70004B0230914C02F901EE0FFF1F2E0F3F1F68
:100C8000F901E15BFD4F218130E02A233B23232B37
:100C9000C1F02091BA073091BB07E0917407F09141
:100CA0007507EF5DFC4FB0803601470104C0660C4C
:100CB000771C881C991C2A95D2F7940183010B2973
:100CC00022C02091BA073091BB07E0917407F091E0
:100CD0007507EF5DFC4F0081802E912CA12CB12C6B
:100CE0002601370104C0440C551C661C771C2A954C
:100CF000D2F7930182010095109520953095082137
:100D000019212A213B2100832091BA073091BB078A
:100D10002F5F3F4F3093BB072093BA072091BA074C
:100D20003091BB072830310574F01092BB07109248
:100D3000BA0720917407309175072F5F3F4F3093AA
:100D400075072093740720914B0230914C022F5F5E
:100D50003F4F30934C0220934B0281CF0196843059
:100D6000910509F071CF61E070E0C12CD12C7601C2
:100D7000C39410924C0210924B02DB01082E02C069
:100D8000AA0FBB1F0A94E2F720914B0230914C024C
:100D90002B3131050CF077C020914B0230914C0281
:100DA000F901EE0FFF1F2E0F3F1FF901E15BFD4F11
:100DB000218130E02A233B23232BC1F02091BA0765
:100DC0003091BB07E0917407F0917507EF5DFC4F20
:100DD000B0803601470104C0660C771C881C991C42
:100DE0002A95D2F7940183010B2922C02091BA07DA
:100DF0003091BB07E0917407F0917507EF5DFC4FF0
:100E00000081802E912CA12CB12C2601370104C029
:100E1000440C551C661C771C2A95D2F7930182015D
:100E20000095109520953095082119212A213B2104
:100E300000832091BA073091BB072F5F3F4F30935B
:100E4000BB072093BA072091BA073091BB0728301F
:100E5000310574F01092BB071092BA072091740705
:100E6000309175072F5F3F4F3093750720937407BC
:100E700020914B0230914C022F5F3F4F30934C0238
:100E800020934B0281CF01968830910509F071CFF4
:100E900020E030E061E070E0C12CD12C7601C394F9
:100EA00010924C0210924B028B01022E02C0000FD6
:100EB000111F0A94E2F780914B0290914C024B97DC
:100EC0000CF073C080914B0290914C02FC01EE0F2C
:100ED000FF1F8E0F9F1FFC01E15BFD4F828190E0A1
:100EE00080239123892BC1F08091BA079091BB0791
:100EF000E0917407F0917507EF5DFC4FB08036010B
:100F0000470104C0660C771C881C991C8A95D2F78F
:100F1000D401C3018B2922C0A091BA07B091BB07AD
:100F2000E0917407F0917507EF5DFC4F8081882E8A
:100F3000912CA12CB12C2601370104C0440C551C66
:100F4000661C771CAA95D2F7D301C20180959095B3
:100F5000A095B09588219921AA21BB2180838091F9
:100F6000BA079091BB0701969093BB078093BA078D
:100F70008091BA079091BB0708976CF01092BB075D
:100F80001092BA078091740790917507019690931B
:100F900075078093740780914B0290914C020196E3
:100FA00090934C0280934B0286CF2F5F3F4F2830A7
:100FB000310509F075CF84E090E09093BB078093F2
:100FC000BA0783E090E0909375078093740781E0FF
:100FD00090E090934C0280934B0201E010E020E0FF
:100FE00030E080914B0290914C02853992400CF098
:100FF00092C08091A402880F8093A4029091A402D1
:101000008091A40294FB442740F950E0881F882770
:10101000881F90E04817590721F08091A402816051
:1010200003C08091A4028E7F8093A4026091A402E9
:10103000E0917407F0917507EF5DFC4F8081E091BE
:10104000BA07F091BB0790E002C095958795EA95A5
:10105000E2F7862780FF18C08091BA079091BB07FE
:10106000E0917407F0917507EF5DFC4F60813801E6
:10107000490104C0660C771C881C991C8A95D2F71C
:10108000D401C301862B20C06091BA077091BB07C1
:10109000E0917407F0917507EF5DFC4F8081C82ED9
:1010A000D12CE12CF12CD901C80104C0880F991F63
:1010B000AA1FBB1F6A95D2F780959095A095B09511
:1010C0008C219D21AE21BF2180838091BA07909110
:1010D000BB0701969093BB078093BA078091BA072C
:1010E0009091BB0708976CF01092BB071092BA075B
:1010F000809174079091750701969093750780937E
:10110000740780914B0290914C02019690934C028F
:1011100080934B0266CF1F910F91FF90EF90DF906D
:10112000CF90BF90AF909F908F907F906F905F9087
:101130004F900895CF93DF9380ED8093AA0280E0D3
:1011400090E021E030E04091A7025091A8024217C0
:101150005307A4F0F901E755FD4F4081E92FFF2720
:10116000E427EE0FFF1FEA5DFD4F45915491982F44
:101170008827842795272F5F3F4FE5CF90934E0216
:1011800080934D02E091A702F091A802E555FD4F32
:101190008083E091A702F091A802E655FD4F90836D
:1011A0008091A7029091A80202969093A802809342
:1011B000A702C1E0D0E08091A7029091A8028C170D
:1011C0009D0754F0FE01E755FD4F60818BEC97E0E1
:1011D0000E9422122196EFCFDF91CF910895809146
:1011E0001002813061F480EE90E00E94842983E057
:1011F00090E00E94842983E190E00E9484298091FC
:101200001002811117C083E08093AB021092AC02F0
:101210008AE18093AD02809104028093AE028091B6
:1012200020038093AF0286E090E09093A802809321
:10123000A70280CF0895CF9383E080930702809127
:10124000C60681112CC0CADA8091950743E050E0B0
:1012500069EB7DE10E94351680914A028E7F809372
:101260004A0280914A028D7F80934A028CE291E08B
:1012700090930B0280930A02109276071092BA069E
:101280001092B60610929E06109241021092C40669
:1012900081E08093C3061092C2068093BD068091C0
:1012A000C606813041F08091C606823021F010924E
:1012B0006F07CF9108951092B8071092B707109258
:1012C000C406C1E0C0930602109271071092700725
:1012D00088E190E090932802809327027FDA8CE2E5
:1012E00091E090930B0280930A02C093BA06109289
:1012F000BD068091950743E050E069EB7DE10E94D7
:101300003516D5CF0E94951780919607811103C09D
:101310000E946E1702C00E9446170E94D61A0E94B1
:10132000A61989CFCF9381E08093070280933C0276
:1013300080936F078091C606811147C08AEF90E0C5
:1013400090930902809308028CE291E090930B0243
:1013500080930A020E94261A809195070E943116F6
:10136000F0D980914A028E7F80934A0280914A028E
:10137000826080934A028091400225E0829FC001F2
:1013800011249093C1068093C0068091C00690916D
:10139000C10660913F024BEF54E0649F9001659F4E
:1013A000300D1124820F931F9093C1068093C006C5
:1013B00082E08093C3068093BD068091950742E04A
:1013C00050E062E976E20E943516C091C606C1304F
:1013D000D9F40E94261A809195070E9431168CE25A
:1013E00091E090930B0280930A021092BA06C09388
:1013F000BD06C0930602A5D98091950742E050E052
:1014000062E976E20E9435168091C606823049F57F
:101410000E94261A809195070E9431168CE291E075
:1014200090930B0280930A021092BA0681E0809397
:10143000BD068093060285D987E090E09093BB07B4
:101440008093BA0780EC93E09093BF068093BE062A
:101450008091950742E050E062E976E2CF910C94EA
:101460003516CF910895109273078091C706803E7C
:1014700049F48091C806833029F48091C9068823F5
:1014800009F493C38091C706803EA1F58091C806F8
:10149000853281F58091C9068A3161F58091C60651
:1014A000813041F5CCC3809172078F5F80937207C2
:1014B000809172078A3118F081E0809372078091E1
:1014C000B7079091B80701969093B8078093B70734
:1014D00080917007909171070196909371078093A6
:1014E0007007809170079091710707970CF047C4BF
:1014F0001092B6078091C706803EC9F58091C80654
:101500008C37A9F58091C906803289F59091C6067D
:10151000923069F580910602853008F47EC427C0B8
:10152000809172078F5F8093720780917207883075
:1015300018F081E0809372078091B7079091B80707
:1015400001969093B8078093B707809170079091A8
:1015500071070196909371078093700780917007CF
:101560009091710705970CF0DBC41092B60780913B
:10157000C706803E09F04DC08091C8068F3009F043
:1015800048C08091C906813109F043C08091C606E8
:1015900081113FC081E0809307021092BC06109237
:1015A000BB0610921E0310921D0310921F03909110
:1015B000C206911115C0809304028093200381E03C
:1015C00090E090930F0280930E0290930D0280930F
:1015D0000C0282E08093C20610927107109270078D
:1015E0008091C406893408F4A2C480EE90E00E9481
:1015F000842985E090E00E9484298FE790E00E9492
:10160000842981E190E00E94842985E090E00E9495
:1016100084298091C706803E89F48091C8068C3069
:1016200069F48091C906843049F48091CA06811119
:1016300005C080916F07882309F4B5C48091C7065F
:10164000803E69F48091C8068C3049F48091C906C7
:10165000843029F48091CA06813009F4DCC5809178
:10166000C706803E09F05DC08091C806833009F04E
:1016700058C08091C906813009F053C080EE90E0D7
:101680000E9484298AE090E00E94842981E090E011
:101690000E94842983E090E00E9484298091C606FC
:1016A00080936E0780916E078F5F80936E076091C5
:1016B0006E078BEC97E0C6D660916F078BEC97E0D6
:1016C000C1D68091C6068111BBC59091C40626E49F
:1016D00030E0A901491B5109CA010E94842980E018
:1016E00090E00E9484298091C606813009F0ABC544
:1016F0002091B7073091B80789E190E0821B930BE6
:101700000E9484298091C606823009F09FC52091ED
:10171000B7073091B80787E090E0821B930B0E94D7
:1017200084298091C706803E09F055C08091C90682
:10173000823009F050C080EE90E00E94842984E05D
:1017400090E00E94842980E790E00E94842982E052
:1017500090E00E9484298091CB0680936D0781E000
:1017600080931F0380916D07813021F410921F0335
:101770001092C60680916D07823029F410921F03E3
:1017800081E08093C60680916D07843029F4109221
:101790001F0382E08093C6068091CD06813011F44C
:1017A0001092C6068091CD06823019F481E08093B4
:1017B000C6068091CD06833019F482E08093C60678
:1017C00080916F07813011F410921F0380916F0791
:1017D000811101C097DD8091C706803E09F048C0A5
:1017E0008091C906833009F043C080916F07811151
:1017F0003FC080EE90E00E94842984E090E00E9447
:10180000842980E790E00E94842983E090E00E9490
:1018100084298091CA0681111CC081E080931F0336
:1018200080916D07813021F410921F038093CA06C6
:1018300080916D07823021F410921F038093CA06B5
:1018400080916D07843029F410921F0383E0809308
:10185000CA068091CA06813009F4FBC48091CA0689
:10186000823009F403C58091CA06833009F40CC59F
:101870008091C706803E09F057C18091C806833029
:1018800009F052C18091C906833109F04DC18091A0
:101890000E0290910F02019790930F0280930E0217
:1018A00080910E0290910F02892B31F482E593E032
:1018B00090930F0280930E0280910E0290910F027E
:1018C000019790930F0280930E0280910E029091E7
:1018D0000F02892B31F482E593E090930F028093FD
:1018E0000E0280910E0290910F02019790930F02C9
:1018F00080930E0280910E0290910F02892B31F499
:1019000082E593E090930F0280930E02E0910E0225
:10191000F0910F02EF5DFC4F85E5808380910E0210
:1019200090910F02019690930F0280930E02809186
:101930000E0290910F028335934034F081E090E0E5
:1019400090930F0280930E02E0910E02F0910F022D
:10195000EF5DFC4F85E5808380910E0290910F0230
:10196000019690930F0280930E0280910E02909147
:101970000F028335934034F081E090E090930F02A2
:1019800080930E02E0910E02F0910F02EF5DFC4F8A
:1019900085E5808380910E0290910F0201969093CD
:1019A0000F0280930E0280910E0290910F028335F8
:1019B000934034F081E090E090930F0280930E0208
:1019C000E0910E02F0910F02EF5DFC4F85E5808300
:1019D00080910E0290910F02019690930F028093D6
:1019E0000E0280910E0290910F028335934034F0E5
:1019F00081E090E090930F0280930E02E0910E023E
:101A0000F0910F02EF5DFC4F88EC808380910E0215
:101A100090910F02019690930F0280930E02809195
:101A20000E0290910F028335934034F081E090E0F4
:101A300090930F0280930E02E0910E02F0910F023C
:101A4000EF5DFC4F8AE7808380910E0290910F0238
:101A5000019690930F0280930E0280910E02909156
:101A60000F028335934034F081E090E090930F02B1
:101A700080930E02E0910E02F0910F02EF5DFC4F99
:101A8000108280910E0290910F02019690930F02A6
:101A900080930E0280910E0290910F028335934045
:101AA00034F081E090E090930F0280930E02E09179
:101AB0000E02F0910F02EF5DFC4F108280910E023A
:101AC00090910F02019690930F0280930E028091E5
:101AD0000E0290910F028335934034F081E090E044
:101AE00090930F0280930E02E0910E02F0910F028C
:101AF000EF5DFC4F108280910E0290910F020196D3
:101B000090930F0280930E0280910E0290910F022B
:101B10008335934034F081E090E090930F028093FE
:101B20000E0284E08093C2068091C706803E91F544
:101B30008091C8068C3271F58091C906803151F5CB
:101B400081E0809304028093200381E090E0FC0117
:101B5000E753F94F2081FC01EC58F94F208301969F
:101B60008A329105A1F786E590E090930F02809369
:101B70000E0281E090E090930D0280930C020E948F
:101B8000E6040E945C0582E08093C2061092710711
:101B9000109270071092C7061092C8061092C906DC
:101BA00010924B0710924A07089580EE90E00E9431
:101BB000842981E190E00E94842980E090E00E94E5
:101BC000842981E090E00E94842984E490E00E94CE
:101BD000842986E590E00E9484298DE490E00E94AB
:101BE000842985E490E00E94842987E490E00E94A3
:101BF000842981E490E00E94842980E290E00E94A0
:101C0000842988E490E00E94842982E590E00E9483
:101C1000842983E390E00E9484298EE290E00E9470
:101C2000842982E390E00E94842986E390E00E9468
:101C3000842981E08093C3068093BD0623CC8093E2
:101C400007028093B6071092BC061092BB06109252
:101C50001E0310921D0310921F038091D9068F3F1F
:101C600089F48091DA06873569F48091DB06873D37
:101C700049F49091DC069D3529F48091DD06853F7D
:101C800009F483C08091D906853589F48091DA06FC
:101C90008D3F69F48091DB068D3749F49091DC0625
:101CA000973F29F48091DD068F3509F491C080912A
:101CB000BA068130B9F492E09093BA0621E030E0A0
:101CC00030930F0220930E028093720730930D021F
:101CD00020930C028093B90787E090E09093BB07B4
:101CE0008093BA078091B7079091B807499794F508
:101CF00081E090E09093EE028093ED0241E28091CA
:101D0000ED029091EE0282970CF0CDCB20917207FC
:101D10008091ED029091EE0230E021503109429F16
:101D2000F001439FF00D1124E80FF91FA091ED027F
:101D3000B091EE02A653B94F8C91EF5DFC4F8083BA
:101D40008091ED029091EE0201969093EE028093C5
:101D5000ED02D5CF80EE90E00E94842985E090E0EE
:101D60000E9484298FE790E00E9484298AE190E014
:101D70000E94842985E090E00E948429A9CB80916B
:101D8000BA06823009F0B4CB46C08091D806807F75
:101D90008093D8068091D8068D608093D806809174
:101DA000DE068F708093DE068091DE06806780936A
:101DB000DE069093D9068FE78093DA0687E7809353
:101DC000DB068DEF8093DC0685E78093DD065ACF36
:101DD0008091D806807F8093D8068091D80687604E
:101DE0008093D8068091DE068F708093DE06809106
:101DF000DE06806D8093DE069093D90685ED809394
:101E0000DA068DED8093DB0687E58093DC068FEDA7
:101E10008093DD064CCF86DA6BCB81E0809307029E
:101E20008093B6071092BC061092BB0610921E0358
:101E300010921D0310921F038091BA06813011F594
:101E40009093BA0621E030E030930F0220930E0207
:101E50008093720730930D0220930C028093B90790
:101E600087E090E09093BB078093BA071092260218
:101E70001092250210927107109270071092B80705
:101E80001092B7078091B7079091B80707979CF514
:101E900081E090E09093EE028093ED0248E780911C
:101EA000ED029091EE02893791050CF039CB20912B
:101EB00072078091ED029091EE0230E021503109DD
:101EC000429FF001439FF00D1124E80FF91FA091EC
:101ED000ED02B091EE02A653B94F8C91EF5DFC4F2D
:101EE00080838091ED029091EE0201969093EE0234
:101EF0008093ED02D4CF80EE90E00E94842985E0AB
:101F000090E00E9484298FE790E00E94842980E27B
:101F100090E00E94842985E090E00E94842915CBFE
:101F20008091BA06823009F020CBFCD91ECB80917B
:101F30009E068F5F80939E0680919E06853110F0ED
:101F400010929E0683E090E041E050E0E0910E02A6
:101F5000F0910F02DC01A953B94F2C91EF5DFC4FBA
:101F6000208320910E0230910F022F5F3F4F30935C
:101F70000F0220930E0220910E0230910F022335A2
:101F8000334024F050930F0240930E0201968F309D
:101F90009105E1F68091C206823009F03ACB83E0E8
:101FA0008093C20636CB10924602109247021092DE
:101FB0004802109249028091CE0690E0A0E0B0E085
:101FC0008093460290934702A0934802B09349023F
:101FD0008091460290914702A0914802B091490237
:101FE000BA2FA92F982F88278093460290934702F3
:101FF000A0934802B09349022091CD0680914602F9
:1020000090914702A0914802B0914902820F911D20
:10201000A11DB11D8093460290934702A0934802F0
:10202000B09349028091460290914702A0914802E4
:10203000B0914902BA2FA92F982F88278093460282
:1020400090934702A0934802B09349022091CC0696
:102050008091460290914702A0914802B0914902B6
:10206000820F911DA11DB11D8093460290934702DE
:10207000A0934802B0934902809146029091470292
:10208000A0914802B0914902BA2FA92F982F882712
:102090008093460290934702A0934802B09349026E
:1020A0002091CB068091460290914702A091480270
:1020B000B0914902820F911DA11DB11D809346026E
:1020C00090934702A0934802B093490210924202B3
:1020D0001092430210924402109245028091D2065F
:1020E00090E0A0E0B0E08093420290934302A0937E
:1020F0004402B09345028091420290914302A09124
:102100004402B0914502BA2FA92F982F88278093B7
:10211000420290934302A0934402B093450220915F
:10212000D1068091420290914302A0914402B09165
:102130004502820F911DA11DB11D80934202909313
:102140004302A0934402B0934502809142029091D1
:102150004302A0914402B0914502BA2FA92F982FB3
:1021600088278093420290934302A0934402B09345
:1021700045022091D0068091420290914302A091A5
:102180004402B0914502820F911DA11DB11D8093A3
:10219000420290934302A0934402B093450280917F
:1021A000420290914302A0914402B0914502BA2F9D
:1021B000A92F982F88278093420290934302A093DF
:1021C0004402B09345022091CF0680914202909143
:1021D0004302A0914402B0914502820F911DA11DBE
:1021E000B11D8093420290934302A0934402B093A6
:1021F000450288D880EE90E00E94842984E090E037
:102200000E94842980E790E00E94842984E090E085
:102210000E94842913CA8091CB0680933E0280EEEF
:1022200090E00E94842984E090E00E94842980E765
:1022300090E00E94842984E090E00E9484290FCAE3
:1022400080E090E04ACA80E090E05ACA80E090E0E6
:1022500066CA8091C606882309F400CB1092C60690
:1022600080916F078111FACA4DD8F8CA8091C606CD
:10227000813009F4F8CA81E08093C60680916F0727
:102280008111F1CA3FD8EFCA8091C606823009F4A5
:10229000EFCA82E08093C60680916F078111E8CA79
:1022A00031D8E6CA8FE190E090936C0780936B077A
:1022B00080916B0790916C0797FD26C080919107E4
:1022C00090919207A0919307B091940720916B078A
:1022D00030916C0704C0B595A795979587952A9579
:1022E000D2F780FF02C061E001C060E08AE074D2F2
:1022F00061E087E071D260E087E06ED280916B0789
:1023000090916C070197D0CF0895CCDF80910002A7
:102310009091010261E060D28091000290910102EF
:1023200060E05AC2CF92DF92EF92FF920F931F9319
:10233000CF93DF936C017A018B01C0E0D0E0CE1522
:10234000DF0589F0D8016D918D01D601ED91FC91E9
:102350000190F081E02DC6011995892B11F47E01C1
:1023600002C02196ECCFC701DF91CF911F910F9151
:10237000FF90EF90DF90CF900895089580E090E077
:102380000895FC01538D448D252F30E0842F90E07B
:10239000821B930B541710F0CF9608950197089560
:1023A000FC01918D828D981759F0828DDF01A80F65
:1023B000B11D5D968C91928D9F5F928F90E00895F4
:1023C0008FEF9FEF0895FC01918D828D981731F06A
:1023D000828DE80FF11D858D90E008958FEF9FEFBE
:1023E0000895FC01918D828D981B892F90E00895AE
:1023F0008BEC97E0F6DF21E0892B09F420E0822FB7
:102400000895FC01848DDF01A80FB11DA35EBE4FAE
:102410002C91848D90E001968F739927848FA689E3
:10242000B7892C93A089B1898C9180648C93938D0A
:10243000848D981306C00288F389E02D80818F7DFA
:1024400080830895EF92FF920F931F93CF93DF93B2
:10245000EC0181E0888F9B8D8C8D981305C0E889F5
:10246000F989808185FD23C0F62E0B8D10E00F5F6A
:102470001F4F0F731127E02E8C8DE8120BC00FB683
:1024800007FCFACFE889F989808185FFF5CFCE0175
:10249000B8DFF2CF8B8DFE01E80FF11DE35EFE4F3A
:1024A000F0820B8FEA89FB898081806207C0EE8908
:1024B000FF896083E889F98980818064808381E075
:1024C00090E0DF91CF911F910F91FF90EF900895D1
:1024D000CF93DF93EC01888D8823C1F0EA89FB89D3
:1024E000808185FD05C0A889B9898C9186FD0EC0C3
:1024F0000FB607FCF5CF808185FFF2CFA889B98997
:102500008C9185FFEDCFCE017CDFE8CFDF91CF91BD
:10251000089580E090E0892B19F06ADF811125C0D1
:1025200080E090E0892B41F080E090E0892B21F061
:102530000E94000081111CC080E090E0892B41F0D6
:1025400080E090E0892B21F00E940000811113C0EF
:1025500080E090E0892BA1F080E090E0892B81F071
:102560000E94000081110AC008950E940000D8CF87
:102570000E940000E1CF0E940000EACF0C9400000E
:10258000089590E0FC013197E231F10508F04EC06A
:102590008827EE58FF4F8F4F0C94B13B80918000FD
:1025A0008F7703C0809180008F7D80938000089595
:1025B00080918000877FF9CF84B58F7702C084B582
:1025C0008F7D84BD08958091B0008F7703C0809186
:1025D000B0008F7D8093B0000895809190008F7738
:1025E00007C0809190008F7D03C080919000877F0D
:1025F0008093900008958091A0008F7707C080910C
:10260000A0008F7D03C08091A000877F8093A000F1
:102610000895809120018F7707C0809120018F7DE0
:1026200003C080912001877F8093200108953FB7E8
:10263000F8948091B2079091B307A091B407B0913C
:10264000B50726B5A89B05C02F3F19F00196A11D1F
:10265000B11D3FBFBA2FA92F982F8827820F911D38
:10266000A11DB11DBC01CD0142E0660F771F881F7F
:10267000991F4A95D1F70895982F482F50E0483078
:102680005105B0F4FA018827EC57FF4F8F4F0C9497
:10269000B13BE8980DC0E9980BC0EA9809C0EB98E7
:1026A00007C0EC9805C0ED9803C0EE9801C0EF9804
:1026B000E92FF0E0EE0FFF1FEB5EFD4F83E693E1A5
:1026C00091838083089508950E94CD3B1F920F92BD
:1026D0000FB60F9211240BB60F922F933F934F9387
:1026E0005F936F937F938F939F93AF93BF93EF937A
:1026F000FF938BEC97E085DEFF91EF91BF91AF9157
:102700009F918F917F916F915F914F913F912F9109
:102710000F900BBE0F900FBE0F901F9018951F9239
:102720000F920FB60F9211240BB60F922F938F9327
:102730009F93EF93FF93E091DB07F091DC0780819B
:10274000E091E107F091E20782FD11C09081809154
:10275000E4078F5F2091E507821751F0E091E407CD
:10276000F0E0E553F84F958F8093E40701C0808136
:10277000FF91EF919F918F912F910F900BBE0F9032
:102780000FBE0F901F901895CF93DF93282F30E046
:10279000F901E050FB4F8491F901E654FB4FD491CD
:1027A000F901EC58FB4FC491CC2389F08111E9DE8B
:1027B000EC2FF0E0EE0FFF1FE65AFB4FA591B4910E
:1027C000EC91ED2381E090E021F480E002C080E014
:1027D00090E0DF91CF9108951F93CF93DF93282F3F
:1027E00030E0F901E050FB4F8491F901E654FB4FD2
:1027F000D491F901EC58FB4FC491CC23C1F0162FB2
:102800008111BFDEEC2FF0E0EE0FFF1FE05CFB4F0D
:10281000A591B4918FB7F894111105C09C91ED2F3B
:10282000E095E92302C0EC91ED2BEC938FBFDF9193
:10283000CF911F910895CF93DF9390E0FC01E65470
:10284000FB4F2491FC01EC58FB4F8491882361F1EC
:1028500090E0880F991FFC01EA5DFB4FC591D49170
:10286000FC01E05CFB4FA591B491611109C09FB7D9
:10287000F8948881209582238883EC912E230BC0C5
:10288000623061F49FB7F8943881822F809583235A
:102890008883EC912E2B2C939FBF06C08FB7F894A2
:1028A000E8812E2B28838FBFDF91CF9108958F92DF
:1028B0009F92AF92BF92CF92DF92EF92FF926B0105
:1028C0007C01B5DE4B015C01C114D104E104F104CB
:1028D000E9F0ADDEDC01CB0188199909AA09BB0931
:1028E000883E9340A105B10578F321E0C21AD108D2
:1028F000E108F10888EE880E83E0981EA11CB11C47
:10290000C114D104E104F10421F7DECFFF90EF9070
:10291000DF90CF90BF90AF909F908F9008951F92BF
:102920000F920FB60F9211242F933F938F939F9383
:10293000AF93BF938091AE079091AF07A091B0077E
:10294000B091B1073091AD0723E0230F2D3720F46C
:102950000196A11DB11D05C026E8230F0296A11DF9
:10296000B11D2093AD078093AE079093AF07A0935E
:10297000B007B093B1078091B2079091B307A091CF
:10298000B407B091B5070196A11DB11D8093B207A0
:102990009093B307A093B407B093B507BF91AF91DD
:1029A0009F918F913F912F910F900FBE0F901F908D
:1029B00018951F920F920FB60F9211240BB60F921B
:1029C0002F933F934F935F936F937F938F939F9337
:1029D000AF93BF93EF93FF93E0912302F091240212
:1029E0001995FF91EF91BF91AF919F918F917F9139
:1029F0006F915F914F913F912F910F900BBE0F9070
:102A00000FBE0F901F9018951F920F920FB60F9246
:102A100011240BB60F922F933F934F935F936F93B5
:102A20007F938F939F93AF93BF93EF93FF93E09127
:102A30002102F09122021995FF91EF91BF91AF9180
:102A40009F918F917F916F915F914F913F912F91C6
:102A50000F900BBE0F900FBE0F901F9018951F92F6
:102A60000F920FB60F9211240BB60F922F933F9334
:102A70004F935F936F937F938F939F93AF93BF9386
:102A8000EF93FF93E0911702F09118021995FF91CF
:102A9000EF91BF91AF919F918F917F916F915F91D6
:102AA0004F913F912F910F900BBE0F900FBE0F9043
:102AB0001F9018951F920F920FB60F9211240BB60C
:102AC0000F922F933F934F935F936F937F938F93C7
:102AD0009F93AF93BF93EF93FF93E0911502F09113
:102AE00016021995FF91EF91BF91AF919F918F9130
:102AF0007F916F915F914F913F912F910F900BBEFE
:102B00000F900FBE0F901F9018951F920F920FB647
:102B10000F9211240BB60F922F933F934F935F9315
:102B20006F937F938F939F93AF93BF93EF93FF9395
:102B3000E0911F02F09120021995FF91EF91BF9152
:102B4000AF919F918F917F916F915F914F913F9145
:102B50002F910F900BBE0F900FBE0F901F901895E6
:102B60001F920F920FB60F9211240BB60F922F9354
:102B70003F934F935F936F937F938F939F93AF9305
:102B8000BF93EF93FF93E0911D02F0911E02199500
:102B9000FF91EF91BF91AF919F918F917F916F9135
:102BA0005F914F913F912F910F900BBE0F900FBEF1
:102BB0000F901F9018951F920F920FB60F9211242D
:102BC0000BB60F922F933F934F935F936F937F9327
:102BD0008F939F93AF93BF93EF93FF93E0911B026B
:102BE000F0911C021995FF91EF91BF91AF919F91C8
:102BF0008F917F916F915F914F913F912F910F90A6
:102C00000BBE0F900FBE0F901F9018951F920F9242
:102C10000FB60F9211240BB60F922F933F934F9341
:102C20005F936F937F938F939F93AF93BF93EF9334
:102C3000FF93E0911902F0911A021995FF91EF911B
:102C4000BF91AF919F918F917F916F915F914F91C4
:102C50003F912F910F900BBE0F900FBE0F901F90C2
:102C60001895883008F408CD0895883008F070C0B1
:102C7000A82FB0E0AA0FBB1FAB5EBD4F11967C938F
:102C80006E9390E0FC013197E730F105A0F58827BD
:102C9000E457FF4F8F4F0C94B13B809169008C7FBC
:102CA000482B40936900E89A089580916900440F89
:102CB000551F440F551F837F482B40936900E99AA5
:102CC00008958091690074E0440F551F7A95E1F7EB
:102CD0008F7C482B40936900EA9A0895809169009F
:102CE00066E0440F551F6A95E1F78F73482B4093B8
:102CF0006900EB9A089580916A008C7F482B40937D
:102D00006A00EC9A089580916A00440F551F440FA1
:102D1000551F837F482B40936A00ED9A0895809158
:102D20006A0024E0440F551F2A95E1F78F7C482B59
:102D300040936A00EE9A089580916A0096E0440FED
:102D4000551F9A95E1F78F73482B40936A00EF9ACD
:102D50000895909107028091AC07981709F46EC00E
:102D6000809107028093AC078091AC0781110EC05F
:102D70001092AB071092AA071092A9071092A80709
:102D800060E086E329DD60E087E326DD8091AC0723
:102D9000813091F480E895E29093AB078093AA0785
:102DA0008FE097E29093A9078093A80761E086E3FC
:102DB00013DD60E087E310DD8091AC07823091F491
:102DC00080EC93E09093AB078093AA0780EF90E0AC
:102DD0009093A9078093A80760E086E3FDDC60E09C
:102DE00087E3FADC8091AC07833091F480E895E2C8
:102DF0009093AB078093AA0780EE91E09093A90788
:102E00008093A80760E086E3E7DC60E087E3E4DC2A
:102E10008091AC07843091F480E895E29093AB0701
:102E20008093AA0780EC92E19093A9078093A8076A
:102E300060E086E3D1DC61E087E3CEDC2091970798
:102E4000309198078091AA079091AB07821793075A
:102E500074F410929807109297078091A8079091A8
:102E6000A907181619061CF461E084E0B5DC20916E
:102E70009707309198078091A8079091A90782172A
:102E800093071CF460E084E0A7CC089581E0809370
:102E900096078093950788E090E0909314028093C2
:102EA000130289E090E0909303028093020284E091
:102EB00090E090931202809311028BE090E0909347
:102EC00001028093000280E0D7DB81E0D5DB8091B6
:102ED000950743E050E069EB7DE1C7CE109296077D
:102EE0001092950785E090E090931402809313026E
:102EF00086E090E090930302809302028DE090E0E0
:102F000090931202809311028CE090E09093010262
:102F10008093000280E0B0DB81E0AEDB809195071A
:102F200043E050E069EB7DE1A0CECF92DF92EF92DB
:102F3000FF928091C606882349F08091C6068130B1
:102F400029F08091C606823009F0FBC180914602CB
:102F500090914702A0914802B09149028115924C8C
:102F6000AB4EBB401CF41092960703C081E08093E7
:102F7000960780919607811115C080914602909125
:102F80004702A0914802B0914902BC01CD01605AAC
:102F90007648814091090E945C3A20E030E041E6A9
:102FA0005AE414C08091460290914702A0914802D1
:102FB000B0914902BC01CD01605A76488140910927
:102FC0000E945C3A20E030E041EE5AE40E94C639AB
:102FD0006093A4077093A5078093A6079093A70713
:102FE0006091A4077091A5078091A6079091A7070B
:102FF0000E94973A0E942E3A6093A307C090A407BC
:10300000D090A507E090A607F090A7078091A307AE
:10301000682F70E080E090E00E945C3A9B01AC0178
:10302000C701B6010E94613920E030E040E057E47A
:103030000E943B3B6093A4077093A5078093A6076B
:103040009093A7076091A4077091A5078091A607A8
:103050009091A70720E030E040E05FE30E946239F2
:103060000E94973A0E942E3A7093A2076093A1079C
:1030700083E090E0A0E0B0E080939D0790939E07EE
:10308000A0939F07B093A00780919D0790919E0702
:10309000A0919F07B091A007BA2FA92F982F88273A
:1030A00080939D0790939E07A0939F07B093A007DE
:1030B00080919D0790919E07A0919F07B091A007D6
:1030C0002091A307822B80939D0790939E07A09346
:1030D0009F07B093A00780919D0790919E07A091B4
:1030E0009F07B091A0076FE0880F991FAA1FBB1F11
:1030F0006A95D1F780939D0790939E07A0939F07B1
:10310000B093A00740919D0750919E0760919F0743
:103110007091A0078091A1079091A207A0E0B0E074
:10312000842B952BA62BB72B80939D0790939E07FE
:10313000A0939F07B093A00780919D0790919E0751
:10314000A0919F07B091A00774E0880F991FAA1F54
:10315000BB1F7A95D1F780939D0790939E07A0930C
:103160009F07B093A0078091960781110FC06091CF
:1031700042027091430280914402909145020E9464
:103180005C3A20E030E041E65AE40EC06091420231
:103190007091430280914402909145020E945C3AF2
:1031A00020E030E041EE5AE40E94C6396093A40763
:1031B0007093A5078093A6079093A7076091A40733
:1031C0007091A5078091A6079091A7070E94973A52
:1031D0000E942E3A6093A307C090A407D090A50741
:1031E000E090A607F090A7078091A307682F70E0F2
:1031F00080E090E00E945C3A9B01AC01C701B601FF
:103200000E94613920E030E040E057E40E943B3BFF
:103210006093A4077093A5078093A6079093A707D0
:103220006091A4077091A5078091A6079091A707C8
:1032300020E030E040E05FE30E9462390E94973A6C
:103240000E942E3A7093A2076093A10782E090E05B
:10325000A0E0B0E08093990790939A07A0939B0712
:10326000B0939C078091990790919A07A0919B0732
:10327000B0919C07BA2FA92F982F88278093990780
:1032800090939A07A0939B07B0939C07809199070E
:1032900090919A07A0919B07B0919C072091A3075A
:1032A000822B8093990790939A07A0939B07B093E2
:1032B0009C078091990790919A07A0919B07B091E4
:1032C0009C073FE0880F991FAA1FBB1F3A95D1F7B3
:1032D0008093990790939A07A0939B07B0939C07BC
:1032E0004091990750919A0760919B0770919C07B4
:1032F0008091A1079091A207A0E0B0E0842B952BCC
:10330000A62BB72B8093990790939A07A0939B07BE
:10331000B0939C078091990790919A07A0919B0781
:10332000B0919C0744E0880F991FAA1FBB1F4A95C4
:10333000D1F78093990790939A07A0939B07B09336
:103340009C07FF90EF90DF90CF9008958091C60684
:1033500081115DC085EF94E2A0E0B0E08093910719
:1033600090939207A0939307B09394070E948511BE
:1033700080919607811121C082E990EDA5E9B3E023
:103380008093910790939207A0939307B09394072B
:103390000E94851183E590E8ADE4BAE2809391073D
:1033A00090939207A0939307B09394070E9485117E
:1033B00084E198E3A9E2B0E020C082E990EDA5E6BF
:1033C000B1E08093910790939207A0939307B093F5
:1033D00094070E94851183E990ECACE4BAE28093F3
:1033E000910790939207A0939307B09394070E943C
:1033F000851184E194ECA5E4B0E08093910790936B
:103400009207A0939307B09394070E94851180912F
:10341000C606882341F08091C606813021F0809154
:10342000C606823091F480919D0790919E07A091ED
:103430009F07B091A0078093910790939207A09364
:103440009307B09394070C945211089580913E0213
:10345000803418F08FE380933E0280913E028230E8
:1034600018F481E080933E028091C60681116DC000
:1034700080919607811130C080913E0290E0A0E0DB
:10348000B0E08093910790939207A0939307B09335
:1034900094078091910790919207A0919307B09122
:1034A00094073DE0880F991FAA1FBB1F3A95D1F7DB
:1034B0008093910790939207A0939307B0939407FA
:1034C0008091910790919207A0919307B0919407F2
:1034D00082699861A06B2FC080913E0290E0A0E0CD
:1034E000B0E08093910790939207A0939307B093D5
:1034F00094078091910790919207A0919307B091C2
:1035000094072DE0880F991FAA1FBB1F2A95D1F79A
:103510008093910790939207A0939307B093940799
:103520008091910790919207A0919307B091940791
:1035300082699861A0658093910790939207A09308
:103540009307B09394070E9485118091C60681303D
:1035500091F48091990790919A07A0919B07B0915F
:103560009C078093910790939207A0939307B09341
:1035700094070E9485118091C606882321F08091CE
:10358000C606823091F48091990790919A07A09194
:103590009B07B0919C078093910790939207A0930B
:1035A0009307B09394070C94521108958091C60626
:1035B000811105C180919D0790919E07A0919F0761
:1035C000B091A0078093910790939207A0939307DF
:1035D000B09394070E9485118091960781113DC098
:1035E00081E290E5AFE1B2E080939107909392077A
:1035F000A0939307B09394070E94851183E590E808
:10360000ADE4BAE28093910790939207A093930759
:10361000B09394070E94851185EF94E2A0E0B0E09A
:103620008093910790939207A0939307B093940788
:103630000E94851184E198E3A9E2B0E080939107AC
:1036400090939207A0939307B09394070E948511DB
:1036500082E998E1A0EBB0E041C081E190E5A7E507
:10366000B0E08093910790939207A0939307B09353
:1036700094070E94851183E990ECACE4BAE2809350
:10368000910790939207A0939307B09394070E9499
:10369000851185EF94E2A0E0B0E0809391079093CC
:1036A0009207A0939307B09394070E94851161E05D
:1036B00070E080E090E0FBD884E194ECA5E4B0E019
:1036C0008093910790939207A0939307B0939407E8
:1036D0000E94851182E990EDA5E5B0E08093910705
:1036E00090939207A0939307B09394070E9485113B
:1036F0008FE090E0AEE0B0E0809391079093920766
:10370000A0939307B09394070E94851186E19EE0F1
:10371000A7E0B5E08093910790939207A093930759
:10372000B09394070E94851162E370E080E090E01E
:10373000BED889EE91E3A2E0B0E080939107909328
:103740009207A0939307B09394070E9485118AE390
:1037500097E4A6E9B2E38093910790939207A09330
:103760009307B09394070E9485118BE390E0A0E04B
:10377000B0E08093910790939207A0939307B09342
:1037800094070E9485118CE091E0A0E0B0E0809366
:10379000910790939207A0939307B09394070E9488
:1037A00085118DE090E0A0E0B0E0809391079093C8
:1037B0009207A0939307B09394070E94851180917C
:1037C000C606813009F0C8C080919607811105C0F6
:1037D00081E290EDAFE1B2E004C081E190EDA7E4B9
:1037E000B0E08093910790939207A0939307B093D2
:1037F00094070E94851183ED90E8ACE4B6E38093D2
:10380000910790939207A0939307B09394070E9417
:10381000851180E995EEA7EDB9E18093910790932A
:103820009207A0939307B09394070E94851185EFA8
:1038300094E2A0E0B0E08093910790939207A09368
:103840009307B09394070E94851184E398EEA6EF46
:10385000B1E88093910790939207A0939307B09358
:1038600094070E94851180919607811105C082EF0F
:1038700090EDA5E6B0E004C082EF90EDA5E3B0E0E6
:103880008093910790939207A0939307B093940726
:103890000E9485118FE090E0AEE0B0E08093910748
:1038A00090939207A0939307B09394070E94851179
:1038B00086E09EE0A7E0B5E08093910790939207A1
:1038C000A0939307B09394070E94851189EE91E32A
:1038D000A2E0B0E08093910790939207A0939307A2
:1038E000B09394070E9485118AE297E4AEE7B2E0B4
:1038F0008093910790939207A0939307B0939407B6
:103900000E9485118BE390E0A0E0B0E080939107E6
:1039100090939207A0939307B09394070E94851108
:103920008CE091E0A0E0B0E0809391079093920743
:10393000A0939307B09394070E9485118DE993E0BB
:10394000A0E0B0E08093910790939207A093930733
:10395000B09394070E9485118091C606823009F0C9
:10396000C8C080919607811105C081E290EDAFE15A
:10397000B2E004C081E190EDA7E4B0E0809391074C
:1039800090939207A0939307B09394070E94851198
:1039900083E990ECACE4BAE28093910790939207AC
:1039A000A0939307B09394070E94851180E995EE48
:1039B000A7EDB9E18093910790939207A0939307A5
:1039C000B09394070E94851185EF94E2A0E0B0E0E7
:1039D0008093910790939207A0939307B0939407D5
:1039E0000E94851184E390E1A8E7B0E880939107F5
:1039F00090939207A0939307B09394070E94851128
:103A000080919607811105C082EF90EDA5E8B0E0A6
:103A100004C082EF90EDA5E4B0E08093910790930D
:103A20009207A0939307B09394070E9485118FE0AB
:103A300090E0AEE0B0E08093910790939207A0935E
:103A40009307B09394070E94851186E09EE0A7E05B
:103A5000B5E08093910790939207A0939307B0935A
:103A600094070E94851189EE91E3A2E0B0E0809373
:103A7000910790939207A0939307B09394070E94A5
:103A800085118AE297E4A6E9B2E3809391079093C7
:103A90009207A0939307B09394070E9485118BE33C
:103AA00090E0A0E0B0E08093910790939207A093FC
:103AB0009307B09394070E9485118CE091E0A0E0F9
:103AC000B0E08093910790939207A0939307B093EF
:103AD00094070E9485118DEB93E0A0E0B0E0809305
:103AE000910790939207A0939307B09394070C9437
:103AF0008511089581E090E09C01220F331F220F71
:103B0000331FF901E758F84F408151816281738179
:103B1000F901E151FD4F4083518362837383019624
:103B20008630910549F7109278071092770708952B
:103B300081E090E0FC01EE0FFF1FEE0FFF1FE75842
:103B4000F84F4081518162817381FC01EE0FFF1FAC
:103B5000EE0FFF1FED5FFC4F408351836283738341
:103B600001968630910531F7109278071092770709
:103B700008950F931F9380911D0390911E0301964A
:103B800090931E0380931D0380919707909198074F
:103B9000019690939807809397078091C6068111AC
:103BA00009C0809197079091980701969093980784
:103BB000809397078091BB069091BC0601969093E5
:103BC000BC068093BB068091C60681115AC08091C5
:103BD000C9079091CA0701969093CA078093C907B5
:103BE0008091C9079091CA078938934144F088E8C9
:103BF00093E19093CA078093C9071092C8078091F8
:103C00001302909114020E94C413892B21F0809119
:103C1000C707806803C08091C7078F778093C70765
:103C20008091C6078F5F8093C6078091C607883052
:103C300009F5E0910A02F0910B028091C707EF5D50
:103C4000FC4F808380910A0290910B020197909320
:103C50000B0280930A0280910A0290910B02892B39
:103C600031F48CE291E090930B0280930A0210925F
:103C7000C60707C08091C70790E095958795809308
:103C8000C7078091C606813009F0C2C480917707CA
:103C900090917807019690937807809377078091A9
:103CA0008D0790918E07A0918F07B0919007880F94
:103CB000991FAA1FBB1F80938D0790938E07A09317
:103CC0008F07B09390078091890790918A07A09100
:103CD0008B07B0918C07B7FD0AC080918D0790913A
:103CE0008E07A0918F07B09190078E7F09C08091B9
:103CF0008D0790918E07A0918F07B09190078160FA
:103D000080938D0790938E07A0938F07B0939007B1
:103D10008091890790918A07A0918B07B0918C07B9
:103D2000880F991FAA1FBB1F8093890790938A074A
:103D3000A0938B07B0938C0780918507909186079D
:103D4000A0918707B0918807B7FD0AC080918907C5
:103D500090918A07A0918B07B0918C078E7F09C044
:103D60008091890790918A07A0918B07B0918C0769
:103D700081608093890790938A07A0938B07B09303
:103D80008C078091850790918607A0918707B09155
:103D90008807880F991FAA1FBB1F809385079093E0
:103DA0008607A0938707B093880780918107909139
:103DB0008207A0918307B0918407B7FD0AC0809164
:103DC000850790918607A0918707B09188078E7F1D
:103DD00009C08091850790918607A0918707B091CF
:103DE000880781608093850790938607A093870753
:103DF000B09388078091810790918207A0918307F3
:103E0000B0918407880F991FAA1FBB1F8093810759
:103E100090938207A0938307B093840780917D07D6
:103E200090917E07A0917F07B0918007B7FD0AC0EF
:103E30008091810790918207A0918307B0918407B8
:103E40008E7F09C08091810790918207A09183079E
:103E5000B091840781608093810790938207A0933B
:103E60008307B093840780917D0790917E07A0918E
:103E70007F07B0918007880F991FAA1FBB1F8093EF
:103E80007D0790937E07A0937F07B0938007809172
:103E90001302909114020E94C413892B51F4809153
:103EA0007D0790917E07A0917F07B0918007816088
:103EB00009C080917D0790917E07A0917F07B09106
:103EC00080078E7F80937D0790937E07A0937F0766
:103ED000B09380078091810790918207A09183071A
:103EE000B0918407AF70BB27853D974FA740B105C0
:103EF00079F480917D0790917E07A0917F07B09122
:103F00008007807F803D9F4DA745BD4D09F41EC6AB
:103F10008091810790918207A0918307B0918407D7
:103F2000AF70BB278F379D45AD40B105D1F480916F
:103F30007D0790917E07A0917F07B0918007807FD9
:103F400080379547AD4FB74761F48091C507811120
:103F500006C681E480931B031092C50781E080931D
:103F6000EC023091C507313009F0FAC08091770733
:103F7000909178078F379D400CF4F2C080917707BD
:103F80009091780782389D400CF0EAC080917D07BF
:103F900090917E07A0917F07B09180078B2F992782
:103FA000AA27BB27FC0127E7E227EA5DFE4F149111
:103FB00080917D0790917E07A0917F07B091800747
:103FC000EA2FF0E08DEFE827EA5DFE4F2491809123
:103FD0007D0790917E07A0917F07B0918007892F80
:103FE0009A2FAB2FBB27A7FDBA95FC01FF2795E7BA
:103FF000E927EA5DFE4F849140917D0750917E074D
:1040000060917F0770918007FA01FF2790E7E92709
:10401000EA5DFE4F4491E22FF0E0E10FF11DE80F61
:10402000F11DE40FF11D3A973CF482E480931B03E9
:104030001092C5073093EC0280917D0790917E0726
:10404000A0917F07B0918007807F803D9F4DA7455D
:10405000BD4D09F49BC580917D0790917E07A0918D
:104060007F07B0918007807F907FA07FB07F803DE9
:10407000904DA045B04D09F489C580917D07909180
:104080007E07A0917F07B091800788279F70AF704F
:10409000BF7081159F40A740BD4009F477C580914E
:1040A0007D0790917E07A0917F07B09180078B2FAD
:1040B0009927AA27BB27FC012DEDE227EA5DFE4FD9
:1040C000949140917D0750917E0760917F07709198
:1040D0008007E62FF0E087E5E827EA5DFE4F849150
:1040E00040917D0750917E0760917F077091800716
:1040F000452F562F672F772767FD7A95FA01FF27FF
:104100002FEDE227EA5DFE4F449100917D0710916B
:104110007E0720917F0730918007F801FF2720ED6F
:10412000E227EA5DFE4F0491E82FF0E0E90FF11D70
:10413000E40FF11DE00FF11D3A9754F41092C407FB
:104140001092C30780E280931B0381E08093EC020E
:10415000809177079091780780389D4009F401C5D8
:104160008091EC02813021F4109278071092770749
:104170008091C507813009F05DC1809177079091EA
:1041800078078E33924094F1809177079091780769
:10419000813492405CF58091810790918207A091D3
:1041A0008307B091840788279C7FA370BB27811564
:1041B0009C44A105B10541F480917707909178075F
:1041C0008034924009F4FFC4809181079091820766
:1041D000A0918307B09184078827907FAF70BB2799
:1041E00081159043A140B10509F4DBC480917707A4
:1041F000909178078E37944094F180917707909151
:104200007807813894405CF580918107909182070E
:10421000A0918307B091840788279C7FA370BB2758
:1042200081159C45A105B10541F4809177079091D6
:1042300078078038944009F4E2C480918107909116
:104240008207A0918307B09184078827907FAF7081
:10425000BB2781159047A140B10509F4BEC48091E8
:104260007707909178078E3B964094F1809177077D
:1042700090917807813C96405CF580918107909100
:104280008207A0918307B091840788279C7FA37041
:10429000BB2781159C45A105B10541F480917707A5
:1042A00090917807803C964009F4C5C480918107BD
:1042B00090918207A0918307B09184078827907F0F
:1042C000AF70BB2781159047A140B10509F4A1C487
:1042D00080917707909178078E3F984094F1809174
:1042E000770790917807813099405CF5809181073C
:1042F00090918207A0918307B091840788279C7FC3
:10430000A370BB2781159445A105B10541F48091A7
:104310007707909178078115994009F4A8C4809196
:10432000810790918207A0918307B0918407882725
:10433000907FAF70BB2781159045A140B10509F46E
:1043400084C480917707909178078E339B4094F1D5
:10435000809177079091780781349B405CF580913C
:10436000810790918207A0918307B09184078827E5
:104370009C7FA370BB2781159444A105B10541F42E
:10438000809177079091780780349B4009F48BC423
:104390008091810790918207A0918307B091840753
:1043A0008827907FAF70BB2781159041A140B10550
:1043B00009F467C480917707909178078034924020
:1043C00029F481E08093EC0280931B0380917707AE
:1043D000909178078038944031F481E08093EC022A
:1043E00082E080931B038091770790917807803C4F
:1043F000964031F481E08093EC0283E080931B03CC
:1044000080917707909178078115994031F481E088
:104410008093EC0284E080931B0380917707909156
:10442000780780349B4031F481E08093EC0285E092
:1044300080931B038091EC02813009F053C082E02D
:104440008093EC0280918D0790918E07A0918F0749
:10445000B09190078093130390931403A0931503D6
:10446000B09316038091890790918A07A0918B07DA
:10447000B0918C0780930F0390931003A0931103C6
:10448000B09312038091850790918607A0918707CA
:10449000B091880780930B0390930C03A0930D03B6
:1044A000B0930E038091810790918207A0918307BA
:1044B000B09184078093070390930803A0930903A6
:1044C000B0930A0380917D0790917E07A0917F07AA
:1044D000B09180078093030390930403A093050396
:1044E000B09306038091EC028230E1F5809177076A
:1044F000909178078038910519F483E08093EC025D
:104500008091770790917807803C924019F483E07E
:104510008093EC0280917707909178078115954000
:1045200019F483E08093EC028091770790917807EB
:104530008034974019F483E08093EC0280917707F0
:10454000909178078038994019F483E08093EC02C9
:104550008091770790917807803C9B4019F483E025
:104560008093EC028091EC02833009F045C01092F8
:10457000EC028091890790918A07A0918B07B091F6
:104580008C078093FF0290930003A0930103B093E4
:1045900002038091850790918607A0918707B091CB
:1045A00088078093FB029093FC02A093FD02B093D6
:1045B000FE028091810790918207A0918307B091BC
:1045C00084078093F7029093F802A093F902B093C6
:1045D000FA0280917D0790917E07A0917F07B091AC
:1045E00080078093F3029093F402A093F502B093B6
:1045F000F60281E080931C038091C3079091C40769
:10460000039734F08091C507813011F41092C507EB
:104610008091C606823009F093C28091770790910D
:1046200078070196909378078093770780918D079C
:1046300090918E07A0918F07B0919007880F991FD6
:10464000AA1FBB1F80938D0790938E07A0938F079F
:10465000B09390078091890790918A07A0918B076A
:10466000B0918C07B7FD0AC080918D0790918E079D
:10467000A0918F07B09190078E7F09C080918D0720
:1046800090918E07A0918F07B091900781608093E1
:104690008D0790938E07A0938F07B093900780911A
:1046A000890790918A07A0918B07B0918C07880F9A
:1046B000991FAA1FBB1F8093890790938A07A09315
:1046C0008B07B0938C078091850790918607A09106
:1046D0008707B0918807B7FD0AC08091890790913C
:1046E0008A07A0918B07B0918C078E7F09C08091BB
:1046F000890790918A07A0918B07B0918C07816000
:104700008093890790938A07A0938B07B0938C07B7
:104710008091850790918607A0918707B0918807BF
:10472000880F991FAA1FBB1F809385079093860748
:10473000A0938707B09388078091810790918207A3
:10474000A0918307B0918407B7FD0AC080918507C7
:1047500090918607A0918707B09188078E7F09C046
:104760008091850790918607A0918707B09188076F
:1047700081608093850790938607A0938707B09305
:1047800088078091810790918207A0918307B0915B
:104790008407880F991FAA1FBB1F809381079093DE
:1047A0008207A0938307B093840780917D0790913F
:1047B0007E07A0917F07B0918007B7FD0AC0809166
:1047C000810790918207A0918307B09184078E7F23
:1047D00009C08091810790918207A0918307B091D1
:1047E000840781608093810790938207A093830759
:1047F000B093840780917D0790917E07A0917F07F9
:10480000B0918007880F991FAA1FBB1F80937D0757
:1048100090937E07A0937F07B09380078091130247
:10482000909114020E94C413892B51F480917D074A
:1048300090917E07A0917F07B0918007816009C0A9
:1048400080917D0790917E07A0917F07B0918007AE
:104850008E7F80937D0790937E07A0937F07B09310
:10486000800780918D0790918E07A0918F07B0915E
:1048700090078336994CA147B44DA1F480918907E4
:1048800090918A07A0918B07B0918C078827992770
:10489000AA270097A105BD4429F48091EC02882342
:1048A00009F40BC28091EC02823041F480917707C9
:1048B00090917807803A910509F40BC28091EC023F
:1048C000833041F48091770790917807803A910581
:1048D00009F408C28091EC02843041F4809177079A
:1048E00090917807803A910509F402C28091EC0218
:1048F000853041F48091770790917807803A91054F
:1049000009F4FFC18091EC02863041F48091770771
:1049100090917807803A910509F4F9C18091EC02F1
:10492000873009F00DC180917707909178078C3717
:1049300091050CF495C080917707909178078538A0
:1049400091050CF08DC08091890790918A07A09104
:104950008B07B0918C078B2F9927AA27BB27FC01C7
:1049600024EDE227EA5DFE4F949140918907509132
:104970008A0760918B0770918C07E62FF0E081E742
:10498000E827EA5DFE4F84914091890750918A079C
:1049900060918B0770918C07452F562F672F7727D3
:1049A00067FD7A95FA01FF2729ECE227EA5DFE4FC1
:1049B00044910091890710918A0720918B073091CB
:1049C0008C07F801FF2723E6E227EA5DFE4F0491FA
:1049D000E82FF0E0E90FF11DE40FF11DE00FF11DEC
:1049E0003A97F4F52091770730917807809177070F
:1049F00090917807821B930B80589F4F9093780774
:104A00008093770783E699ECA1E7B4ED809389075B
:104A100090938A07A0938B07B0938C0780918507AA
:104A200090918607A0918707B0918807BB27809354
:104A3000850790938607A0938707B0938807809196
:104A4000850790918607A0918707B0918807BD647C
:104A50008093850790938607A0938707B093880774
:104A60008091770790917807803A910509F068C0A6
:104A7000109278071092770782E08093EC0258D862
:104A800080918D0790918E07A0918F07B09190072C
:104A90008336994CA147B44D81F41092C20780919E
:104AA000890790918A07A0918B07B0918C07A7FF87
:104AB00047C081E08093EB0243C083E699ECA1E715
:104AC000B4ED80938D0790938E07A0938F07B093DA
:104AD00090078091890790918A07A0918B07B091E8
:104AE0008C07BB278093890790938A07A0938B0735
:104AF000B0938C078091890790918A07A0918B07CA
:104B0000B0918C07BD648093890790938A07A09326
:104B10008B07B0938C070CD88091C2078F5F80936E
:104B2000C2078091C207843019F481E08093EB02C0
:104B30008091C207853020F01092EC021092EB02B7
:104B400081E08093B9061F910F91089580E28093D0
:104B50001B0381E08093C5078093EC02D9C982E4EE
:104B6000F9C98091EC02813009F4FACA8091C30737
:104B70009091C40701969093C4078093C30780E285
:104B800080931B0381E08093EC02EACA1092C40771
:104B90001092C30780E280931B0381E08093EC02B4
:104BA0007ECA80917707909178078E33924009F002
:104BB0001DCB8091770790917807029690937807A4
:104BC0008093770713CB80917707909178070297AE
:104BD0009093780780937707F7CA80917707909131
:104BE00078078E37944009F03ACB809177079091FF
:104BF00078070296909378078093770730CB80915F
:104C000077079091780702979093780780937707BA
:104C100014CB80917707909178078E3B964009F0EE
:104C200057CB8091770790917807029690937807F9
:104C3000809377074DCB8091770790917807029703
:104C4000909378078093770731CB80917707909185
:104C500078078E3F984009F074CB80917707909148
:104C60007807029690937807809377076ACB8091B4
:104C7000770790917807029790937807809377074A
:104C80004ECB80917707909178078E339B4009F047
:104C900091CB80917707909178070296909378074F
:104CA0008093770787CB8091770790917807029759
:104CB00090937807809377076BCB1092EB0210925A
:104CC000C20710921C0382E08093EC020E94981DA0
:104CD000E9CD83E08093EC020E947A1D81E080930D
:104CE0001C03ECCD84E08093EC020E94981DF2CD71
:104CF00085E08093EC020E947A1D81E080931C0382
:104D0000F5CD86E08093EC020E94981DFBCD87E0F4
:104D10008093EC020E947A1D81E080931C03109224
:104D2000C107FCCD809197079091980701969093C9
:104D30009807809397078091C606811109C08091DA
:104D400097079091980701969093980780939707FB
:104D50008091BB069091BC0601969093BC0680930F
:104D6000BB068091BC078F5F8093BC078091BC0716
:104D7000823010F01092BC078091C606811186C067
:104D80008091C0069091C10601979093C1068093CF
:104D9000C0068091C306843021F08091C30685301F
:104DA00011F51092C0071092BF078091BE06909136
:104DB000BF0601979093BF068093BE0680910202C2
:104DC000909103020E94C413019709F04CC2809194
:104DD00002029091030260E00E94EC138091C306EE
:104DE000853009F446C28091C306873029F080914E
:104DF000C306883009F04AC08091BF079091C00770
:104E000001969093C0078093BF078091BF07909150
:104E1000C007803691055CF01092C0071092BF0762
:104E2000809141028F5F8093410280914102E09125
:104E30000C02F0910D02EF5DFC4F80812091BA07CA
:104E40003091BB0790E002C0959587952A95E2F7CF
:104E500080FF24C2809102029091030261E00E94CF
:104E6000EC138091BA079091BB0701969093BB0712
:104E70008093BA078091BA079091BB07089709F40D
:104E800013C28091C306883009F42AC28091C606F5
:104E9000813009F049C180910602813079F5809115
:104EA000BB069091BC0680FF06C0809102029091E3
:104EB000030260E005C0809102029091030261E06C
:104EC0000E94EC1380912702909128020197909301
:104ED0002802809327028091270290912802892B33
:104EE00009F0BDC182E08093060280910C0290918E
:104EF0000D029093BE078093BD0787C08091060284
:104F0000823009F058C02091B90740912502509194
:104F1000260281E090E0841B950B31E2239F800DF7
:104F2000911D112490930D0280930C02E0910C02CC
:104F3000F0910D02EF5DFC4F80812091BA07309116
:104F4000BB0790E002C0959587952A95E2F780FF10
:104F500006C0809102029091030260E005C080913A
:104F600002029091030261E00E94EC138091BA0763
:104F70009091BB07892B09F069C187E090E090937D
:104F8000BB078093BA078091250290912602019772
:104F9000909326028093250280912502909126020B
:104FA000892B09F05CC189E190E0909328028093FD
:104FB000270283E048C180910602833069F5809121
:104FC000BB069091BC06809102029091030260E0C2
:104FD0000E94EC13809127029091280201979093F0
:104FE0002802809327028091270290912802892B22
:104FF00009F035C184E0809306028091BD0790914D
:10500000BE0790930D0280930C0281E290E0909392
:1050100026028093250223C180910602843009F084
:1050200083C02091B907409125025091260281E06A
:1050300090E0841B950B31E2239F800D911D11247C
:1050400090930D0280930C02E0910C02F0910D02FE
:10505000EF5DFC4F80812091BA073091BB0790E053
:1050600002C0959587952A95E2F780FF06C080914A
:1050700002029091030260E005C0809102029091CB
:10508000030261E00E94EC138091BA079091BB0784
:10509000892B09F0DBC087E090E09093BB078093F9
:1050A000BA078091250290912602019790932602DB
:1050B000809325028091250290912602892B09F088
:1050C000CEC087E190E0909328028093270221E0F0
:1050D000209306028091B7079091B80701979093AB
:1050E000B8078093B7078091B9078F5F8093B9079E
:1050F0008091B9078A3110F02093B9078091B707E2
:105100009091B807181619061CF085E080930602E6
:1051100080910602853009F0A2C08091B6078823ED
:1051200009F49DC081E08FC08091C606823009F0ED
:1051300096C08091BE069091BF0618161906DCF441
:105140008091BC0780FF06C080910202909103020B
:1051500060E005C0809102029091030261E00E942C
:10516000EC138091BE069091BF0601979093BF0605
:105170008093BE0674C0E0910C02F0910D02EF5DC9
:10518000FC4F80812091BA073091BB0790E002C0AC
:10519000959587952A95E2F780FF06C080910202D7
:1051A0009091030260E005C0809102029091030299
:1051B00061E00E94EC138091BA079091BB07892BA4
:1051C00009F044C087E090E09093BB078093BA0752
:1051D00080910C0290910D02019690930D028093A4
:1051E0000C0280910C0290910D028934934031F4AD
:1051F00081E090E090930D0280930C028091250253
:105200009091260201969093260280932502809128
:105210002502909126028837910509F51092260201
:10522000109225028091B7079091B807019790934B
:10523000B8078093B7078091B7079091B807181601
:1052400019066CF085E08093060209C08091BA07C8
:105250009091BB0701979093BB078093BA0781E0B9
:105260008093C5060895809102029091030261E047
:10527000B3CD80910202909103020E94C413019762
:1052800049F080910202909103020E94C413892B7D
:1052900009F0A9CD86E08093C306A5CD80910202D6
:1052A0009091030260E0DBCD1092BB071092BA0729
:1052B00080910C0290910D02019690930D028093C3
:1052C0000C0280910C0290910D02833593400CF4F6
:1052D000D8CD81E090E090930D0280930C02D1CD67
:1052E00020910E0230910F0280910C0290910D02DC
:1052F0002817390709F0CACD89E08093C306C6CDC7
:105300008BEC97E00C942212682F8BEC97E00C94B6
:105310002212789484B5826084BD84B5816084BD96
:1053200085B5826085BD85B5816085BD80916E0043
:10533000816080936E001092810080918100826074
:1053400080938100809181008160809381008091B1
:1053500080008160809380008091B10084608093A0
:10536000B1008091B00081608093B0008091910085
:105370008260809391008091910081608093910080
:10538000809190008160809390008091A100826064
:105390008093A1008091A10081608093A100809101
:1053A000A00081608093A0008091210182608093A1
:1053B0002101809121018160809321018091200150
:1053C00081608093200180917A00846080937A00CC
:1053D00080917A00826080937A0080917A00816067
:1053E00080937A0080917A00806880937A0010928E
:1053F000C10060E082E00E941B1460E083E00E9434
:105400001B1460E085E00E941B1461E086E00E94AE
:105410001B1461E087E00E941B1460E088E00E949A
:105420001B1461E089E00E941B1461E08AE00E9485
:105430001B1461E08BE00E941B1461E08CE00E9471
:105440001B1460E08DE00E941B1461E084E00E9468
:105450001B1461E086E30E941B1461E087E30E9455
:105460001B1461E088E30E941B1461E089E30E9441
:105470001B1461E08AE30E941B1461E08BE30E942D
:105480001B1460E087E00E94EC1360E08BE00E9458
:10549000EC1360E08CE00E94EC1360E08AE00E9474
:1054A000EC1360E084E00E94EC1360E086E30E946D
:1054B000EC1360E087E30E94EC1360E088E30E9455
:1054C000EC1360E089E30E94EC1386E980934002CC
:1054D00010923F028FE380933E021092C60680E452
:1054E00096E8A4EAB8E08093460290934702A0931E
:1054F0004802B09349028093420290934302A093E2
:105500004402B09345020E946E170E9495170E94B4
:10551000D61A0E94A619809100029091010261E0C2
:105520000E94EC13809100029091010260E00E94C1
:10553000EC1362E370E080E090E00E9457148091E9
:10554000BB069091BC068536910518F081E08093EA
:105550003D0280EC92E9ADEEB9E180934602909372
:105560004702A0934802B09349028093420290936D
:105570004302A0934402B09345020E9446170E9442
:1055800095170E94D61A0E94A6190E941B09E09145
:10559000DB07F091DC0782E08083E091D707F09190
:1055A000D8071082E091D907F091DA0780E1808373
:1055B0001092E307E091DF07F091E00786E0808337
:1055C000E091DD07F091DE07808180618083E091CA
:1055D000DD07F091DE07808188608083E091DD0740
:1055E000F091DE07808180688083E091DD07F09193
:1055F000DE0780818F7D80838BEC97E00E946812AC
:1056000089E08093100210924B0710924A0711E034
:1056100002E010923C028BEC97E00E94F111181608
:1056200019060CF057C0C0914A07D0914B078BEC7C
:1056300097E00E94D011C953D94F888380914A07BF
:1056400090914B07019690934B0780934A07809166
:10565000C706803D29F08091C706803E09F061C5EC
:105660008091C706803D09F580914A0790914B07CC
:105670000697DCF08091C806813009F059C5809109
:10568000C906811155C58091CA06813109F050C5FE
:105690008091CB0681114CC58091CC068B3009F0EE
:1056A00047C5109210021092C6068091C706803E30
:1056B00089F480914A0790914B0703975CF08091A1
:1056C000C806833009F03BC58091C906811137C5F2
:1056D00010931002009307020E94A91680911002F5
:1056E000893009F496CF83E080930702C1E0D0E0CF
:1056F00002E513E055E0E52EF12C64E1262E312C75
:105700007EE1472E512CE6E16E2E712C812C912CDE
:105710005401839480911002811106C18BEC97E0B3
:105720000E94F1111816190604F5C0904A07D0908E
:105730004B078BEC97E00E94D011F601E953F94F2B
:10574000808380914A0790914B07019690934B0775
:1057500080934A0780914A0790914B0783389105BF
:1057600024F010924B0710924A078091C706803DA3
:1057700021F010924B0710924A078091C706803D96
:1057800009F0D2C080914A0790914B0705970CF41D
:10579000CBC020914A0730914B078091C80690E01A
:1057A0000496821793070CF0BFC08091CA0681311E
:1057B00009F040C08093AB021092AC0281E9809363
:1057C000AD0281E68093AE0292E39093AF0284E44F
:1057D0008093B00286E58093B1028DE28093B2029D
:1057E0008DE48093B30285E48093B40287E48093D0
:1057F000B50281E48093B60220E22093B70222E54D
:105800002093B80223E32093B9022EE22093BA0238
:105810009093BB0296E39093BC028093BD023092BA
:10582000A8022092A7020E949A0881E08093C306F2
:105830008093BD068091CA068231E1F485E08093B1
:10584000AB021092AC0282E98093AD0283E18093B7
:10585000AE0289E08093AF0280E18093B00281E0E4
:105860008093B10288E090E09093A8028093A70211
:105870000E949A088091CA06843109F467C4809115
:10588000CA06803109F41EC58091CA06803109F428
:105890001FC58091CA06863151F480910202909111
:1058A000030260E00E94EC1381E08093C2068091C5
:1058B000CA06873139F58091CB0680930402809126
:1058C000CC068093200381E090E0FC01E253F94F85
:1058D0002081FC01EC58F94F208301968A32910512
:1058E000A1F786E590E090930F0280930E02D0938B
:1058F0000D02C0930C020E94E6040E945C0582E047
:105900008093C2068091CA06893109F4E7C4809168
:10591000CA068A3109F421C51092C7061092C8063A
:1059200010924B0710924A07809110028130F1F5D6
:105930008BEC97E00E94F1111816190604F5C0903F
:105940004A07D0904B078BEC97E00E94D011F601EC
:10595000E953F94F808380914A0790914B07019654
:1059600090934B0780934A0780914A0790914B0789
:105970008338910524F010924B0710924A078091CA
:10598000C706803E21F010924B0710924A07809183
:10599000C706803E59F420914A0730914B07809109
:1059A000C80690E02817390709F450C60E94A916C6
:1059B0008091C606811166C28091C506882309F4CC
:1059C00045C020910E0230910F0280910C029091FF
:1059D0000D028217930784F480910E0290910F02BA
:1059E00020910C0230910D02821B930B6CE070E051
:1059F0000E949E3B6093C40620910E0230910F02DC
:105A000080910C0290910D022817390794F480912F
:105A10000E0290910F0220910C0230910D028E5ACD
:105A20009C4F821B930B6CE070E00E949E3B609346
:105A3000C40620910E0230910F0280910C029091C9
:105A40000D022817390711F41092C4068091C3067D
:105A5000882309F49EC08091C306813029F4809187
:105A6000C20681110E9492098091C306823049F4D6
:105A70008091C0069091C106059718F483E0809349
:105A8000C3068091C3068330A1F48091C2068230A0
:105A900080F0809110028111DCC58DEF90E0909331
:105AA000BF068093BE0684E08093C30683E08093A4
:105AB000BD068091C306843049F48091BE06909162
:105AC000BF0602971CF485E08093C3068091C3064D
:105AD000863031F487E08093C30685E08093BD066D
:105AE0008091C306873009F045C08091BB06909134
:105AF000BC06813C924110F00E941B098091C406B3
:105B000081111AC080910C0290910D02CC97909354
:105B10000D0280930C0280910C0290910D021816D8
:105B2000190654F080910C0290910D028E5A9C4FF0
:105B300090930D0280930C028091C4068F3AD0F0AE
:105B400080910E0290910F02CC9790930F02809358
:105B50000E0280910E0290910F021816190654F051
:105B600080910E0290910F028E5A9C4F90930F02DB
:105B700080930E028091C306873029F49091C2066B
:105B8000943009F469C58091C306893011F40E94EC
:105B90001B098091BA068630C0F520910A02309127
:105BA0000B0280910802909109028217930794F4E6
:105BB000809108029091090220910A0230910B0213
:105BC000845D9E4F821B930B8B3F91051CF081E0FF
:105BD0008093B906209108023091090280910A024F
:105BE00090910B028217930784F4809108029091A0
:105BF000090220910A0230910B02821B930B8B3F0A
:105C000091051CF081E08093B9068091B906882344
:105C100009F438C10E946A048091BA06863020F5E2
:105C20008091BD06823000F58091B7069091B8064C
:105C3000C19734F080E390E09093B8068093B70664
:105C40008091B6068F5F8093B6068091AB0685354E
:105C500009F408C58091B606803609F40EC5809116
:105C60009E06813109F40FC58091BA06811111C0D9
:105C70008091B906882369F08091BD06823048F48E
:105C80008091AD068A3A29F48091AC068A3A09F4EB
:105C900031C68091BA06813069F48091B9068823B3
:105CA00049F08091AD068A3A29F48091AC068A3A8F
:105CB00009F433C68091BA06823009F080C0809121
:105CC000B906882309F47BC08091A40283FF04C035
:105CD0008091A40286FD43C68091A40283FD04C086
:105CE0008091A40286FF3BC68091A402880F809316
:105CF000A4028091A40281608093A4028091A906ED
:105D000080FF36C68091A40280FF32C620914B02EC
:105D100030914C028091A6023091A50290E0AC0136
:105D2000440F551FFA01E80FF91FE30FF11DE15B66
:105D3000FD4F808190E0A0E0B0E0B501A40104C077
:105D4000440F551F661F771F2A95D2F7409550952F
:105D50006095709584239523A623B7238083809133
:105D6000A6028F5F8093A6028091A502811105C0D3
:105D70008091A6028C3108F038C68091A50281304E
:105D800009F41DC68091A502813009F41DC68091D9
:105D90004B0290914C0297FF0BC087E090E09093EC
:105DA0004C0280934B028091A5028F5F8093A502E5
:105DB0008091A502823009F413C61092C306809127
:105DC000BA06833069F48091B906811158C608C0BB
:105DD00082E390E09093A8028093A7020E949A0821
:105DE0008091BA06843029F48091B90681110C940F
:105DF0001D378091BA06853081F48091B9068111F2
:105E00000C9422370AC086E08093BA061092B60638
:105E100084E180939E061092B9068091BA0686307E
:105E200089F58091B906882369F18091B6068F5F64
:105E30008093B6068091B606823030F08091B60627
:105E4000893110F40C94DD378091B606893411F451
:105E50000C94313780919E06843111F40C9456379E
:105E600080919E06843111F40C945D378091B606C2
:105E7000893411F40C9464378091B606803610F0A2
:105E80000C94CC3780911F038823D9F18091C606EA
:105E9000811110C080911D0390911E0389359B4193
:105EA00048F010921E0310921D0381E08093C606F5
:105EB0000E9482098091C606813081F480911D0381
:105EC00090911E03813C924148F010921E03109263
:105ED0001D0382E08093C6060E9482098091C60657
:105EE000823079F480911D0390911E03893B9B4081
:105EF00040F010921E0310921D031092C6060E94DD
:105F000082098091C606813009F0A5C080911C03EA
:105F1000813009F093C010921E0310921D0310925D
:105F20001F0310921C0380911B03813411F40C9405
:105F3000A93880911B03823411F40C94A93884E0B1
:105F40008093070280EE90E0DFD985E290E0DCD913
:105F50008AE190E0D9D960911B038BEC97E00E9415
:105F6000221289E090E09093EE028093ED028091FE
:105F7000ED029091EE0202970CF453C0E091ED0215
:105F8000F091EE02EE0FFF1FEE0FFF1FE151FD4FEC
:105F900080819181A281B3816B2F772788279927F0
:105FA000AFD9E091ED02F091EE02EE0FFF1FEE0F80
:105FB000FF1FE151FD4F80819181A281B3816A2F42
:105FC00070E080E090E09CD9E091ED02F091EE026B
:105FD000EE0FFF1FEE0FFF1FE151FD4F80819181FA
:105FE000A281B381692F70E080E090E089D9E091CF
:105FF000ED02F091EE02EE0FFF1FEE0FFF1FE151D9
:10600000FD4F80819181A281B381BC01CD017727B1
:106010008827992775D98091ED029091EE0201971A
:10602000A2CF8091F3029091F402A091F502B09179
:10603000F6026B2F77278827992762D9809106026D
:10604000853011F40E941B0980911B03823419F4DE
:1060500083E080930702D090C60682E0D8125AC02F
:1060600080911C03813009F04FC084E080930702C7
:1060700010921C0310921F038091EC02833041F5B3
:1060800080EE90E041D98CE790E03ED980E290E04C
:106090003BD9809105028E5F8093050280910502B5
:1060A000811102C0D09205028091EB02813029F467
:1060B00080910502816080930502609105028BEC5E
:1060C00097E00E942212809105028E7F8093050244
:1060D0008091EC02833011F40C94C5388091EC026D
:1060E000853011F40C94C5388091EC02873011F49E
:1060F0000C94C5388091EC02873031F48091EB022A
:10610000813011F40C942B3980910602853011F402
:106110000E941B091092B9061092C5060E948912AE
:10612000F9CA10924B0710924A071092C70698CAF4
:1061300010924B0710924A071092C706B6CA1092E7
:106140004B0710924A071092C706C4CA8091CB062B
:10615000813C09F0A5C010924602109247021092AD
:106160004802109249028091D10690E0A0E0B0E090
:106170008093460290934702A0934802B09349024D
:106180008091460290914702A0914802B091490245
:10619000BA2FA92F982F8827809346029093470201
:1061A000A0934802B09349022091D0068091460204
:1061B00090914702A0914802B0914902820F911D2F
:1061C000A11DB11D8093460290934702A0934802FF
:1061D000B09349028091460290914702A0914802F3
:1061E000B0914902BA2FA92F982F88278093460291
:1061F00090934702A0934802B09349022091CF06A2
:106200008091460290914702A0914802B0914902C4
:10621000820F911DA11DB11D8093460290934702EC
:10622000A0934802B09349028091460290914702A0
:10623000A0914802B0914902BA2FA92F982F882720
:106240008093460290934702A0934802B09349027C
:106250002091CE068091460290914702A09148027B
:10626000B0914902820F911DA11DB11D809346027C
:1062700090934702A0934802B0934902809146024E
:1062800090914702A0914802B09149028093420246
:1062900090934302A0934402B09345020E94820966
:1062A00082E08093AB021092AC0284E98093AD024D
:1062B00086E08093AE02F092A802E092A7020E94CC
:1062C0009A08DDCA8091C806823009F0DDCA7BC118
:1062D0008091C806813009F0DCCA8AC11092BC06E0
:1062E0001092BB0680919E068F5F80939E068091E0
:1062F0009E06853110F010929E0688E090E0209175
:106300000E0230910F02FC01E953F94F4081F9016F
:10631000EF5DFC4F408320910E0230910F022F5F02
:106320003F4F30930F0220930E0220910E023091C6
:106330000F022335334024F0D0930F02C0930E0296
:10634000019684319105D9F68091C206823009F018
:10635000DECA83E08093C206DACA80910E02909171
:106360000F02019790930F0280930E0280910E020C
:1063700090910F02892B21F410930F0200930E02CB
:1063800080910E0290910F02019790930F028093DB
:106390000E0280910E0290910F02892B21F410932E
:1063A0000F0200930E0280910E0290910F0201974E
:1063B00090930F0280930E0280910E0290910F0233
:1063C000892B21F410930F0200930E02E0910E022C
:1063D000F0910F02EF5DFC4F85E5808380910E0206
:1063E00090910F02019690930F0280930E0280917C
:1063F0000E0290910F028335934024F0D0930F0248
:10640000C0930E02E0910E02F0910F02EF5DFC4F7F
:1064100085E5808380910E0290910F020196909302
:106420000F0280930E0280910E0290910F0283352D
:10643000934024F0D0930F02C0930E02E0910E021D
:10644000F0910F02EF5DFC4F85E5808380910E0295
:1064500090910F02019690930F0280930E0280910B
:106460000E0290910F028335934024F0D0930F02D7
:10647000C0930E02E0910E02F0910F02EF5DFC4F0F
:1064800085E5808380910E0290910F020196909392
:106490000F0280930E0280910E0290910F028335BD
:1064A000934024F0D0930F02C0930E02E0910E02AD
:1064B000F0910F02EF5DFC4F88EC808380910E021B
:1064C00090910F02019690930F0280930E0280919B
:1064D0000E0290910F028335934024F0D0930F0267
:1064E000C0930E02E0910E02F0910F02EF5DFC4F9F
:1064F0008AE7808380910E0290910F02019690931B
:106500000F0280930E0280910E0290910F0283354C
:10651000934024F0D0930F02C0930E02E0910E023C
:10652000F0910F02EF5DFC4F108280910E0290916E
:106530000F02019690930F0280930E0280910E023B
:1065400090910F028335934024F0D0930F02C093B3
:106550000E02E0910E02F0910F02EF5DFC4F1082EF
:1065600080910E0290910F02019690930F028093FA
:106570000E0280910E0290910F028335934024F019
:10658000D0930F02C0930E02E0910E02F0910F0221
:10659000EF5DFC4F108280910E0290910F020196E8
:1065A00090930F0280930E0280910E0290910F0241
:1065B0008335934024F0D0930F02C0930E0284E001
:1065C0008093C206A9C99091CB0690934C07809303
:1065D000AB021092AC0280E98093AD0286E080931A
:1065E000AE02F092A802E092A7020E949A084CC95B
:1065F00088E08093AB021092AC0280E98093AD02F8
:1066000087E48093AE0280914A028093AF0280912A
:10661000BD068093B00285E18093B1028CEF809338
:10662000B2028091C4069CE0899F802D1124809342
:10663000B302809141028093B4028BE090E090938A
:10664000A8028093A7020E949A0823C90E94330AD5
:10665000ADC988EE97E023CA98E09093C306809373
:10666000BD0691CA8091AA068D3209F0F3CA8091C5
:10667000A906863109F0EECA4BC080919E06893189
:1066800008F464C0ECCA80914F078111EDCA84E020
:106690008093BA068FEF9FEF40E050E0FA01EC588C
:1066A000F94F208130E068E070E0E82FE1709695C6
:1066B0008795F22FF170EF1721F0E8E08E27E4E8DC
:1066C0009E27369527956150710979F74F5F5F4F87
:1066D0004732510519F790934E0280934D02409135
:1066E0009B0650E09C0120953095332742175307B5
:1066F00009F0FDC040919C0650E0892F99272FEFAB
:1067000030E0281B390B4217530709F0F0C077C05F
:1067100080914F0781110EC01092B60610929E060E
:1067200081E080934E0710924D071092B8061092A8
:10673000B70690CA10924F0788E48093B60684E1AA
:1067400080939E0686E08093BA0684CA1092B606AD
:1067500080919E068F5F80939E0680914D078130C9
:10676000B9F4E091B706F091B8069091AB0680E7D6
:106770008927EC58F94F80838091B7069091B8062D
:1067800001969093B8068093B70610924D070BC000
:106790008091AB06853221F08091AB06813261F5A4
:1067A00081E080934D07E091B706F091B806909193
:1067B000AA068FE48927EC58F94F80838091B706A9
:1067C0009091B80601969093B8068093B706E09131
:1067D000B706F091B8069091A90683E98927EC588D
:1067E000F94F80838091B7069091B80601969093F7
:1067F000B8068093B70633CA10929E06D1CF809117
:106800001002813059F580EE90E00E9484298CE2DC
:1068100090E00E94842980E190E00E9484291092F7
:10682000B8061092B7068091B7069091B80689977E
:10683000ACF4E091B706F091B806EC58F94F6081DE
:106840008BEC97E00E9422128091B7069091B806D7
:1068500001969093B8068093B706E5CF8091100219
:1068600081113FC08FE28093AB021092AC0287E1AE
:106870008093AD02809104028093AE028091200348
:106880008093AF021092B0021092B1021092B8063B
:106890001092B7068091B7069091B8068997CCF40C
:1068A0008091B7069091B806E091B706F091B806CE
:1068B000EC58F94F2081FC01EE54FD4F208380916C
:1068C000B7069091B80601969093B8068093B706E4
:1068D000E1CF82E390E09093A8028093A7020E9408
:1068E0009A0881E080934F071092BA06BDC91092B2
:1068F000BA06FACF8091AB068A3A09F0CAC98091EC
:10690000AA068A3A09F0C5C981E08093BA06809147
:106910004A02816080934A02BCC98091AB068E36E0
:1069200009F0C8C98091AA068A3009F0C3C982E07B
:106930008093BA061092A5021092A60287E090E01A
:1069400090934C0280934B028FEF8093A40210929D
:106950002003809104028F5F80930402ABC9809171
:10696000A402880F8093A4028091A4028E7FC4C9E0
:106970008091A90680FD04C08091A40280FFC6C951
:1069800020914B0230914C028091A6023091A502D9
:1069900090E0AC01440F551FFA01E80FF91FE30F17
:1069A000F11DE15BFD4F3081D501C40104C0880FAA
:1069B000991FAA1FBB1F2A95D2F7832BCFC980919D
:1069C000A6028C3178F5DEC98091A6028B3109F0E0
:1069D000DEC980914B0290914C0204977CF1D7C99B
:1069E0008091A6028B31B0F5E8C91092A602809181
:1069F0004B0290914C02019790934C0280934B0272
:106A000080914B0290914C0297FFB7C987E090E0CC
:106A100090934C0280934B028091A5028F5F8093EC
:106A2000A502ABC91092A60280914B0290914C0234
:106A3000019790934C0280934B02A4C91092A60236
:106A400080914B0290914C02019790934C0280935D
:106A50004B029DC91092A60280914B0290914C026C
:106A6000019790934C0280934B0280914B0290913E
:106A70004C0297FFA2C983E08093BA069EC9109288
:106A8000A6021092A5021092A4021092B8061092CB
:106A9000B7068091B7069091B80689970CF01DC192
:106AA0001092A3028091A60290E04091A5029C0161
:106AB000220F331FF901E80FF91FE40FF11DE15B0D
:106AC000FD4F808186FF04C08091A402806803C0CE
:106AD0008091A4028F778093A4020E94AF048091DA
:106AE000A60290E04091A5029C01220F331FF901FC
:106AF000E80FF91FE40FF11DE15BFD4F808184FF7A
:106B000004C08091A402806803C08091A4028F77A2
:106B10008093A4020E94AF048091A60290E040916D
:106B2000A5029C01220F331FF901E80FF91FE40FA2
:106B3000F11DE15BFD4F808182FF04C08091A402C2
:106B4000806803C08091A4028F778093A4020E9482
:106B5000AF048091A60290E04091A5029C01220F13
:106B6000331FF901E80FF91FE40FF11DE15BFD4F41
:106B7000808180FF04C08091A402806803C080915E
:106B8000A4028F778093A4020E94AF048091A50293
:106B90008F5F8093A5028091A502833038F0109218
:106BA000A5028091A6028F5F8093A6028091A60223
:106BB00090E04091A5029C01220F331FF901E80FDC
:106BC000F91FE40FF11DE15BFD4F808186FF04C0DA
:106BD0008091A402806803C08091A4028F77809383
:106BE000A4020E94AF048091A60290E04091A50209
:106BF0009C01220F331FF901E80FF91FE40FF11D6B
:106C0000E15BFD4F808184FF04C08091A402806815
:106C100003C08091A4028F778093A4020E94AF04E6
:106C20008091A60290E04091A5029C01220F331FA3
:106C3000F901E80FF91FE40FF11DE15BFD4F8081C1
:106C400082FF04C08091A402806803C08091A402E6
:106C50008F778093A4020E94AF048091A60290E0F7
:106C60004091A5029C01220F331FF901E80FF91F83
:106C7000E40FF11DE15BFD4F808180FF04C0809136
:106C8000A402806803C08091A4028F778093A4023D
:106C90000E94AF048091A5028F5F8093A50280912E
:106CA000A502833038F01092A5028091A6028F5F72
:106CB0008093A602E091B706F091B8068091A302F6
:106CC000EC58F94F80838091B7069091B8060196F1
:106CD0009093B8068093B706DCCE84E08093BA0622
:106CE0008FEF9FEF40E050E0FA01EC58F94F208120
:106CF00030E068E070E0E82FE17096958795F22F1C
:106D0000F170EF1721F0E8E08E27E4E89E27369532
:106D100027956150710979F74F5F5F4F47325105F1
:106D200019F790934E0280934D0240919B0650E0DC
:106D30009C012095309533274217530709F079C0FD
:106D400020919C0630E0892F99274FEF50E0481B97
:106D5000590B2417350709F06CC08091100281305F
:106D600059F580EE90E00E9484298CE290E00E9428
:106D7000842980E190E00E9484291092B806109244
:106D8000B7068091B7069091B8068997ACF4E09168
:106D9000B706F091B806EC58F94F60818BEC97E09C
:106DA0000E9422128091B7069091B80601969093A6
:106DB000B8068093B706E5CF80911002811110C804
:106DC0008FE28093AB021092AC0287E18093AD0218
:106DD000809104028093AE02809120038093AF02E1
:106DE0001092B0021092B1021092B8061092B7063B
:106DF0008091B7069091B806899714F00C94E82E0C
:106E00008091B7069091B806E091B706F091B80668
:106E1000EC58F94F2081FC01EE54FD4F2083809106
:106E2000B7069091B80601969093B8068093B7067E
:106E3000DFCF1092BA060C94F02E85E08093BA064C
:106E40000C94F92E81E08093B6068091B6068131CC
:106E500010F00C94032F0E946A048091B6068F5F95
:106E6000F2CF8091AB06853511F00C942A2F8091DA
:106E7000AA06853511F00C942A2F8091A906853534
:106E800011F00C942A2F8091A806853511F00C94EE
:106E90002A2F8091A706883C11F00C942A2F80910C
:106EA000A6068A3711F00C942A2FDAC08091B60614
:106EB000823408F0E5C00C94302F8091B6068934F6
:106EC00011F00C94362F04C180919E06809320030C
:106ED000809110028130E9F080911002811157C039
:106EE00083E18093AB021092AC0289E18093AD0202
:106EF000809104028093AE02809120038093AF02C0
:106F000088EE8093B00283E08093B10285E190E047
:106F100025C010921E0310921D0310921F0380EED5
:106F200090E00E9484298FE090E00E94842981E112
:106F300090E00E94842995E1C92ED12CF601E156FA
:106F4000F94F60818BEC97E00E94221221E0C21A77
:106F5000D10849E0C416D10489F7BECF9201281B9D
:106F6000390BFC01E156F94F4081F901E755FD4F1E
:106F7000408301978930910589F71092BE021092E3
:106F8000BF027092A8026092A7020E949A0884E051
:106F9000809307020C943C2F1092B60680919E06B7
:106FA0008F5F80939E0680919E06853110F40C942D
:106FB000422F10929E060C94422F2091080230918D
:106FC000090280910A0290910B028217930764F4E0
:106FD000809108029091090220910A0230910B02DF
:106FE000821B930B45976CF42091080230910902A3
:106FF00080910A0290910B02281739078CF00C94AB
:10700000242F30E2C32ED12C0E946A048091B60650
:107010008F5F8093B60621E0C21AD108A9F7E4CFAA
:10702000809108029091090220910A0230910B028E
:10703000845D9E4F821B930B459714F40C94242F70
:1070400020E2C22ED12C0E946A048091B6068F5F86
:107050008093B60641E0C41AD108A9F70C94242FF6
:107060000E9492090E941B098CE291E0FC01EF5DF5
:10707000FC4F10820197D0F70E94EF080C942A2F42
:10708000E091AA0685E5E827F0E0EA5DFE4F8491ED
:10709000E091A9069DE2E927F0E0EA5DFE4F9491B8
:1070A000E091A80626E1E227F0E0EA5DFE4F249198
:1070B000E92FF0E0E80FF11DE20FF11D329714F017
:1070C0000C94302F1092B9060E946A040C94302F51
:1070D000E091AB0685E5E827F0E0EA5DFE4F84919C
:1070E000E091AA069DE2E927F0E0EA5DFE4F949167
:1070F000E091A90626E1E227F0E0EA5DFE4F249147
:10710000E92FF0E0E80FF11DE20FF11D329714F4C2
:107110000C94362F8091AB06853541F08091AA06FC
:107120008D3221F08091A906863159F485E580934E
:10713000AB068DE28093AA0686E18093A9060C94A3
:10714000362F0E9492090E941B090E94EF080C949E
:10715000362F80911B03807F80931B0320911B039C
:107160008091070390910803A0910903B0910A034D
:1071700036E1B595A795979587953A95D1F78F7094
:10718000822B80931B030C949F2F8AE090E09093B6
:10719000EE028093ED028091ED029091EE021816BE
:1071A000190614F00C947A30E091ED02F091EE02A1
:1071B000EE0FFF1FEE0FFF1FE151FD4F8081918108
:1071C000A281B3816B2F7727882799270E94802976
:1071D000E091ED02F091EE02EE0FFF1FEE0FFF1FA8
:1071E000E151FD4F80819181A281B3816A2F70E0CE
:1071F00080E090E00E948029E091ED02F091EE02A3
:10720000EE0FFF1FEE0FFF1FE151FD4F80819181B7
:10721000A281B381692F70E080E090E00E94802914
:10722000E091ED02F091EE02EE0FFF1FEE0FFF1F57
:10723000E151FD4F80819181A281B381BC01CD01DB
:107240007727882799270E9480298091ED029091C5
:10725000EE0201979CCF1092EB021092EC0283E0B9
:10726000809307020C948430EBECF7E013821282D7
:1072700088EE93E0A0E0B0E084839583A683B78393
:107280008DE292E09183808385EC90E095878487FE
:1072900084EC90E09787868780EC90E0918B808BE0
:1072A00081EC90E0938B828B82EC90E0958B848BC9
:1072B00086EC90E0978B868B118E128E138E148E37
:1072C00008955058BB27AA270ED084C175D130F03D
:1072D0007AD120F031F49F3F11F41EF46AC10EF40C
:1072E000E095E7FB37C1E92F86D180F3BA17620733
:1072F00073078407950718F071F49EF5B5C10EF475
:10730000E0950B2EBA2FA02D0B01B90190010C01B5
:10731000CA01A0011124FF27591B99F0593F50F4CD
:10732000503E68F11A16F040A22F232F342F442725
:10733000585FF3CF469537952795A795F04053951D
:10734000C9F77EF41F16BA0B620B730B840BBAF0ED
:107350009150A1F0FF0FBB1F661F771F881FC2F758
:107360000EC0BA0F621F731F841F48F4879577956C
:107370006795B795F7959E3F08F0B3CF9395880F23
:1073800008F09927EE0F9795879508950CD022C1A4
:107390001AD140F011D130F021F45F3F19F0DAC07A
:1073A000511163C106C127D198F39923C9F355231D
:1073B000B1F3951B550BBB27AA27621773078407E8
:1073C00038F09F5F5F4F220F331F441FAA1FA9F39E
:1073D00033D00E2E3AF0E0E830D091505040E69590
:1073E000001CCAF729D0FE2F27D0660F771F881FF1
:1073F000BB1F261737074807AB07B0E809F0BB0BE0
:10740000802DBF01FF2793585F4F2AF09E3F510503
:1074100068F0A0C02AC15F3FECF3983EDCF386958C
:1074200077956795B795F7959F5FC9F7880F911D79
:107430009695879597F90895E1E0660F771F881F65
:10744000BB1F621773078407BA0720F0621B730B18
:10745000840BBA0BEE1F88F7E0950895D4D088F01E
:107460009F5790F0B92F9927B751A0F0D1F0660F30
:10747000771F881F991F1AF0BA95C9F712C0B1304B
:1074800081F0F2D0B1E00895EFC0672F782F882700
:10749000B85F39F0B93FCCF3869577956795B3958A
:1074A000D9F73EF490958095709561957F4F8F4FF9
:1074B0009F4F0895E89409C097FB3EF490958095FE
:1074C000709561957F4F8F4F9F4F9923A9F0F92FAA
:1074D00096E9BB279395F695879577956795B79528
:1074E000F111F8CFFAF4BB0F11F460FF1BC06F5F0E
:1074F0007F4F8F4F9F4F16C0882311F096E911C020
:10750000772321F09EE8872F762F05C0662371F040
:1075100096E8862F70E060E02AF09A95660F771F54
:10752000881FDAF7880F9695879597F9089585D083
:1075300080F09F3740F491110EF097C060E070E04A
:1075400080E89FEB089526F41B16611D711D811DB7
:1075500007C021C097F99F6780E870E060E0089558
:10756000882371F4772321F09850872B762F07C05A
:10757000662311F499270DC09051862B70E060E0CE
:107580002AF09A95660F771F881FDAF7880F96956D
:10759000879597F908959F3F31F0915020F4879592
:1075A00077956795B795880F911D9695879597F96B
:1075B00008959FEF80EC089500240A94161617068C
:1075C00018060906089500240A94121613061406D4
:1075D00005060895092E0394000C11F4882352F037
:1075E000BB0F40F4BF2B11F460FF04C06F5F7F4FEF
:1075F0008F4F9F4F089557FD9058440F551F59F0D6
:107600005F3F71F04795880F97FB991F61F09F3F8F
:1076100079F087950895121613061406551FF2CFB8
:107620004695F1DF08C0161617061806991FF1CF08
:1076300086957105610508940895E5DFA0F0BEE721
:10764000B91788F4BB279F3860F41616B11D672F51
:10765000782F8827985FF7CF869577956795B11D26
:1076600093959639C8F30895E894BB276627772742
:10767000CB0197F908950BD0ADCF9EDF28F0A3DFA3
:1076800018F0952309F066CF94CF1124EECFB3DF25
:10769000A0F3959FD1F3950F50E0551F629FF00125
:1076A000729FBB27F00DB11D639FAA27F00DB11D7E
:1076B000AA1F649F6627B00DA11D661F829F222707
:1076C000B00DA11D621F739FB00DA11D621F839F8E
:1076D000A00D611D221F749F3327A00D611D231F64
:1076E000849F600D211D822F762F6A2F11249F57B2
:1076F00050408AF0E1F088234AF0EE0FFF1FBB1FD5
:10770000661F771F881F91505040A9F79E3F510573
:1077100070F020CFAACF5F3FECF3983EDCF3869564
:1077200077956795B795F795E7959F5FC1F7FE2B1E
:10773000880F911D9695879597F9089597FB072EC9
:1077400016F4009406D077FD08D013D007FC05D0BE
:107750003EF4909581959F4F0895709561957F4F68
:107760000895EE0FFF1F881F8BBF0790F691E02D45
:107770001994AA1BBB1B51E107C0AA1FBB1FA61768
:10778000B70710F0A61BB70B881F991F5A95A9F7CA
:1077900080959095BC01CD01089581E090E0F8942A
:0677A00000C0F894FFCFC9
:1077A6000C00060001020102FA002C010100010092
:1077B600010D0005006313631363136313631363FF
:1077C60013631363132100190000000000221292B4
:0C77D60011C1116812F111D011E3110073
:00000001FF
